:020000040800F2
:10000000000001209D020008A1020008A3020008D0
:10001000E1020008E3020008F90200080000000005
:100020000000000000000000000000000F030008B6
:10003000110300080000000013030008013200084B
:1000400029030008290300082903000829030008E0
:1000500029030008290300082903000829030008D0
:1000600029030008290300082903000829030008C0
:100070002903000829030008F521000829030008C6
:1000800029030008290300082903000829030008A0
:100090002903000829030008290300082903000890
:1000A0002903000829030008290300082903000880
:1000B000E11A0008290300082903000829030008A1
:1000C0002903000829030008290300082903000860
:1000D0002903000861210008E5270008290300081A
:1000E0002903000829030008290300082903000840
:1000F0002903000829030008290300082903000830
:10010000290300082903000829030008290300081F
:10011000290300082903000829030008290300080F
:1001200029030008290300082903000829030008FF
:1001300000000000000000000000000000000000BF
:1001400000000000000000000000000000000000AF
:10015000000000000000000000000000000000009F
:10016000000000000000000000000000000000008F
:10017000000000000000000000000000000000007F
:10018000000000000000000000000000000000006F
:10019000000000000000000000000000000000005F
:1001A000000000000000000000000000000000004F
:1001B000000000000000000000000000000000003F
:1001C000000000000000000000000000000000002F
:1001D000000000000000000000000000000000001F
:1001E0005FF8E0F107B500F04BFD214A214B2249B1
:1001F0008B4226D30021214B214A934226D300F083
:100200004BFD01A9684600F033FD00251D4E1E4C34
:10021000A41BA410AC421CDC00251C4E1C4CA41BCF
:10022000A410AC421ADC9DE8030003F064FA064611
:10023000184D194C641BA410002C14DC304600F03F
:10024000F1FC52F8040F43F8040BD1E743F8041B08
:10025000D3E756F8253098470135DBE756F82530C7
:1002600098470135DDE7013C55F824309847E3E72E
:10027000286E00080000002000020020000200207C
:10028000D40200205403000854030008540300085B
:100290006C0300086C0300086C0300081E4800474C
:1002A000FEE71EF0040F0CBFEFF30880EFF30980A8
:1002B00071461A4A104710B5084C236B9B070BD5A3
:1002C000E36A002B08DA4BF6AB6100F0F9FC18B1D9
:1002D0004FF00043E36210BDFEE700BF00ED00E019
:1002E000FEE71EF0040F0CBFEFF30880EFF3098068
:1002F00071460B4A1047FEE71EF0040F0CBFEFF3E8
:100300000880EFF309807146064A1047FEE7FEE7D2
:10031000FEE7FEE770470000E5010008B7020008AD
:0A032000F70200080D030008FEE7D5
:10032C002C6E000800000020000200202C6E00083B
:10033C00000000000000000000020020D402002099
:10034C000000000000000000991B0008BD320008EE
:10035C00DD3C0008A13D0008253E0008A93E000830
:1003700040F0BF60024B40F40030D860704700BFCF
:1003800000ED00E010B5C2780378E2B1124AD168FE
:100390004278C943C1F30221C1F10404A2400F24F1
:1003A000807824FA01F101400A430C491201C8186F
:1003B000D2B280F8002303F01F005A0901238340C2
:1003C00041F8223010BD01215A0903F01F0301FA40
:1003D00003F320320149F3E700ED00E000E100E023
:1003E000044B04281A680CBF42F0040222F00402F5
:1003F0001A60704710E000E0036823F001031B045B
:100400001B0C03600023036043608360C360294BBF
:10041000984204D1284A536843F00F0326E0274B43
:10042000984204D1244A536843F0F0031EE0244B61
:10043000984204D1204A536843F4706316E0214B7C
:10044000984204D11C4A536843F470430EE01E4B9B
:10045000984204D1184A536843F4702306E01B4BBA
:10046000984205D1144A536843F4700353607047AF
:10047000174B984204D1104A536843F07063F5E774
:10048000144B984201D1144AC5E7144B984201D14C
:10049000114AC8E7124B984201D10F4ACBE7114BE2
:1004A000984201D10C4ACEE70F4B9842DFD10A4A5D
:1004B000D1E700BF08000240000002401C000240DB
:1004C0003000024044000240580002406C000240EC
:1004D0008000024008040240000402401C04024064
:1004E0003004024044040240580402408B6810B5B6
:1004F0000C6A026823430C6922F4FF4223434C69CF
:1005000022F0700223438C692343CC6923434C6A55
:1005100023438C6A234313430360CB6843600B6817
:1005200083604B68C36010BD002303604360836039
:10053000C360036143618361C36103624362836299
:100540007047036819B143F001030360704723F05B
:1005500001031B041B0CF8E7036812B11943016087
:10056000704723EA0101FAE741607047406880B2B2
:1005700070470000C3004CBF034B044B1B68034291
:1005800014BF012000207047000402400000024018
:10059000C3004CBF014B024B58607047000402403F
:1005A00000000240CB782DE9F041DA0648BF8A7896
:1005B0000E8803F00F0548BF154316F0FF0F1AD041
:1005C00000214FF0010E4FF00F0C02680EFA01F7F8
:1005D00037EA06040BD18C000CFA04F822EA080270
:1005E00005FA04F4282B42EA040225D147610131BF
:1005F0000829EBD10260FF2E1CD900214FF0010E1B
:100600004FF00F0C426801F108040EFA04F434EACA
:1006100006070BD18F000CFA07F822EA080205FA48
:1006200007F7282B42EA07020AD144610131082961
:10063000E9D14260BDE8F081482B08BF0761D6E7E9
:10064000482B08BF0461F1E74FF6FF7303800223D4
:1006500083700423C3707047016170474161704724
:10066000014B1860704700BF00300040014B5860DC
:10067000704700BF00300040014B9860704700BFDA
:10068000003000404AF6AA22014B1A60704700BFB2
:10069000003000404CF6CC42014B1A60704700BF5E
:1006A00000300040014B1860704700BF8004424298
:1006B0001C4A10B5536803F00C03042B01D0082B1F
:1006C0001FD0194B03605368184CC3F30313E15C4C
:1006D0000368CB4043605168C1F30221615C23FA97
:1006E00001F181605168C1F3C221615CCB40C360FC
:1006F00052680F49C2F381328A5CB3FBF2F30361A3
:1007000010BD53685168C3F38343CC0303F1020364
:1007100002D408494B43D5E751688903F9D402490B
:10072000F8E700BF0010024000127A000400002029
:100730000000002000093D00044B5A6911B110432C
:100740005861704722EA0000FAE700BF001002403B
:10075000044B9A6911B110439861704722EA000076
:10076000FAE700BF00100240044BDA6911B11043F0
:10077000D861704722EA0000FAE700BF001002408B
:10078000044BDA6811B11043D860704722EA0000C8
:10079000FAE700BF00100240044B1A6911B1104380
:1007A0001861704722EA0000FAE700BF001002401B
:1007B0004209012A074B07D11B6800F01F0023FAEA
:1007C00000F000F001007047022A0CBF1B6A5B6A50
:1007D000F3E700BF0010024008B5614B98420BD10F
:1007E00001214FF40060FFF7CBFF00214FF40060C0
:1007F000BDE80840FFF7C4BFB0F1804F09D1012127
:100800000846FFF7C9FF00210120BDE80840FFF7B7
:10081000C3BF544B984206D101210220FFF7BCFF11
:1008200000210220F1E7504B984206D1012104201B
:10083000FFF7B2FF00210420E7E74C4B984206D1B6
:1008400001210820FFF7A8FF00210820DDE7484B21
:10085000984206D101211020FFF79EFF00211020B1
:10086000D3E7444B984206D101212020FFF794FFA3
:1008700000212020C9E7404B984208D101214FF4C4
:100880000050FFF77DFF00214FF40050B0E73B4BD5
:10089000984208D101214FF40020FFF771FF002199
:1008A0004FF40020A4E7364B984208D101214FF4C1
:1008B0008010FFF765FF00214FF4801098E7314B5F
:1008C000984208D101214FF40010FFF759FF002191
:1008D0004FF400108CE72C4B984206D101214020A8
:1008E000FFF75AFF002140208FE7284B984206D19E
:1008F00001218020FFF750FF0021802085E7244B55
:10090000984208D101214FF48070FFF745FF002184
:100910004FF4807079E71F4B984208D101214FF4C2
:100920008030FFF72DFF00214FF4803060E71A4B35
:10093000984208D101214FF40030FFF721FF002138
:100940004FF4003054E7154B984208D101214FF481
:100950008020FFF715FF00214FF4802048E708BDF5
:10096000002C01400004004000080040000C004042
:10097000001000400014004000340140004C0140D1
:10098000005001400054014000180040001C00408D
:100990000020004000400140004401400048014068
:1009A000224A038890429BB212D002F50062904224
:1009B0000ED0B0F1804F0BD0A2F59832904207D004
:1009C00002F58062904203D002F58062904203D12A
:1009D0004A8823F070031343154A904208D002F569
:1009E000806290421FBF23F44073CA889BB21343B6
:1009F00003808B8883850B8803850C4B98420FD02E
:100A000003F5006398420BD003F54063984207D08A
:100A100003F58063984203D003F58063984201D1C7
:100A20000B7A038601238382704700BF002C0140AC
:100A3000001000404FF6FF73838000230380C380C3
:100A4000438003727047038821B19BB243F00103D6
:100A50000380704723F001031B041B0CF8E7838914
:100A60009BB212B119438181704723EA0101FAE771
:100A7000FFF7F5BF038821B19BB243F080030380E9
:100A8000704723F080031B041B0CF8E78185704737
:100A9000C94389B201827047038A828911EA03003F
:100AA00092B203D0114214BF012000207047C94305
:100AB00089B201827047000030B50D460446038AB2
:100AC0008A899BB2C98823F440530B4303828389EC
:100AD000A98823F4B05323F00C031B041B0C0B4315
:100AE000298987B00B4369890B439BB28381838A31
:100AF0009BB223F440731343838201A8FFF7D8FD10
:100B0000174A039B0499944218BF19461922A389D6
:100B10004A4313F4004F2B684FF0640514BF5B0089
:100B20009B00B2FBF3F1B1FBF5F3A28918011204AB
:100B300005FB13130BD5DA003232B2FBF5F202F0EB
:100B4000070242EA00039BB2238107B030BD1B01BC
:100B50003233B3FBF5F303F00F030343F3E700BFB6
:100B6000003801404FF416530C22036000234281E9
:100B70008380C380038183817047838921B19BB2C5
:100B800043F400538381704723F400531B041B0C70
:100B9000F8E701F01F0310B5C1F342140121012C45
:100BA00001FA03F105D10C3003683AB11943016031
:100BB00010BD022C0CBF10301430F5E723EA010100
:100BC000F5E7838A9BB212B119438182704723EA09
:100BD0000101FAE78088C0F308007047C94389B271
:100BE000018070470123C1F3421210B5012A01F0C0
:100BF0001F0403FA04F30ED1828992B213400288D3
:100C000092B26BB10123090A03FA01F10A4214BF3F
:100C10001846002010BD022A0CBF028A828AECE727
:100C2000184610BD08B500F039F808B50120FFF7E7
:100C3000F9FF00000B4A08B51168034609B90A49D3
:100C400011601068033323F00303084903448B4207
:100C500006D903F023FF0C2303604FF0FF3008BDDB
:100C6000136008BD00020020D402002000FC002018
:100C700001230360014B0B60704700BF140000208C
:100C800008B500F02BF8024B024A9A6008BD00BF7D
:100C900000ED00E00000000800F0B2B8BFF34F8F95
:100CA0000549064BCA6802F4E0621343CB60BFF308
:100CB0004F8F00BFFDE700BF00ED00E00400FA0524
:100CC00083691A888A4207D10268033A012A03D845
:100CD00002338361012070470020704780B582B0E5
:100CE0003F4B404A196800AF914208D13E4A1A6012
:100CF00000231B6883F308883C4B1B6898473C4BD8
:100D00001A6842F001021A6059683A4A0A405A6069
:100D10001A6822F0847222F480321A601A6822F46F
:100D200080221A605A6822F4FE025A604FF41F02B1
:100D30009A6000223A607A601A6842F480321A603F
:100D40001A6802F400327A603A6801323A607A68CE
:100D50001AB93A68B2F5A06FF2D11A6812F40032EB
:100D600018BF01227A607A68012A06D04FF000622B
:100D7000214B08379A60BD4680BD204A116841F07A
:100D800010011160116821F003011160116841F038
:100D9000020111605A685A605A685A605A6842F4EF
:100DA00080625A605A6822F47C125A605A6842F48F
:100DB000E8125A601A6842F080721A601A6892014A
:100DC000FCD55A6822F003025A605A6842F00202C7
:100DD0005A605A6802F00C02082AFAD1C6E700BF2E
:100DE000F0FF0020EFBEADDEEDFEFECA04F0FF1FF7
:100DF000001002400000FFF800ED00E0002002407B
:100E0000114A124B516801F00C01042901D0082944
:100E10000AD00F49196052680E49C2F30312895C67
:100E20001A68CA401A60704751685068C1F383411C
:100E3000C00301F1020102D407484143EAE75068C8
:100E40008003F9D40248F8E7001002402C0000208B
:100E500000127A001C00002000093D0070B5054614
:100E60002C7B8068012C13D003D3022C33D00124B7
:100E70000CE0826AC3680124B3FBF2F382689A42F1
:100E800004D82B6103682C731B699847204670BDFA
:100E9000C168826A8668B1FBF2F39E4204D90023DE
:100EA0002B7303685B69F0E72E69B342EED902FB4E
:100EB0001313002BEAD090F82630012BE6D1022341
:100EC0002B7303680521DB699847A8680024036831
:100ED0001B699847DAE7826AC368B3FBF2F382685A
:100EE0009A4205D900232B7303685B699847BEE7D4
:100EF00090F82630012BBAD1E3E700230373036196
:100F0000806803685B69184710B50446024B0360AC
:100F100000F030F8204610BD005F000810B5044610
:100F2000FFF7F2FF204602F064FC204610BD704738
:100F3000806808B5C168826AB1FBF2F302FB131343
:100F400013B90368DB689847012008BD10B5044653
:100F5000024B036000F00EF8204610BD445F00080D
:100F600010B50446FFF7F2FF204602F042FC20468F
:100F700010BD7047704710B5044602F03AFC204699
:100F800010BD000010B5024C41600460826010BDCD
:100F9000745F00088C3000F0DFBD90F8D03013B9DA
:100FA0008C3000F0D2BD70478C3000F0CEBD8C305C
:100FB00000F0D9BD014A03C802F084BC07690FC71D
:100FC00038B504460D4600F007FB2046064B29467F
:100FD00040F8703B01F046FC294604F18C0000F01B
:100FE000C5FC204638BD00BFA85F00082DE9F043CE
:100FF0001D46012385B00093C36804460E46904603
:1010000000F11001426802A802F08AFD9DF8083044
:10101000002B46D0039E012E1FD12746002347F800
:10102000183F0020A646A3684EF8080F63B3196A5C
:10103000D3F800C0B1FBF6F206FB121257F82210EB
:10104000D9B9A1681960A36047F822E0196809B10D
:1010500047F8203063461046E8E7B6F1804F01D3E9
:1010600002F01CFD4FEA8609484602F05BFC4A4646
:101070000021074603F08EFDD3E70968196057F891
:10108000222013600246E5E7234653F8180B9842E6
:1010900001D002F0AEFBB8FBF6F3666006FB1386E8
:1010A00027602368C5F8208053F82620B7005AB17E
:1010B00012682A6053F826301D602846E368013321
:1010C000E36005B0BDE8F083A2682A60A56042B184
:1010D0002A686168106AB0FBF1F201FB120243F862
:1010E000225004F10802DA51E7E72DE9F843994666
:1010F0000368074653F821500E469046E5B12C6828
:10110000236A99450BD1D8F80420A3689A4206D1E6
:1011100092B16168D8F8000003F008FD60B1226860
:101120006AB1116A7B6825461446B1FBF3F203FBF2
:1011300012129642E4D000252846BDE8F8831546F1
:10114000FAE7F8B51D460368044653F821009042BB
:1011500026D12E6856B1D6F820E06768BEFBF7F0BE
:1011600007FB10E081420CD043F8202053F8217097
:1011700004F1080087424FF0000008BFA66043F862
:10118000210028462B68136050F8046B02F036FDEE
:10119000284602F02EFBE3683046013BE360F8BDD1
:1011A00028680028EDD0076A6668B7FBF6F006FBF2
:1011B0001070814218BF43F82020E2E72DE9F04784
:1011C000044688B000F10C0608460F469046FFF72B
:1011D000F1FE21690346B0FBF1F03A4601FB103104
:1011E0003046FFF782FF002800F0968005683946F8
:1011F00001A802F05DFD98F8003024208DF81C3025
:10120000D4F8009002F08EFB804601A9083002F06D
:1012100010FD9DF81C30404688F82030494602F009
:1012200031FCA36801A80133A36002F0E7FCF5B12B
:10123000A368D5F81C80013BA360404602F029FC5E
:1012400008F1080002F0DAFC404602F0D2FA2A6AFD
:101250002369B2FBF3F103FB1121E36853F821206A
:1012600013689D425AD12B463046FFF76AFF384635
:10127000FFF7A0FE23698046B0FBF3F903FB1909D1
:101280003A46034649463046FFF72FFF08B100684B
:1012900098B9242002F046FB05464FF0000A284684
:1012A000394640F804AB02F003FDC5F81CA02B46FC
:1012B000424649463046FFF799FE23681C300360DA
:1012C000A26AA3699A4224D2676808373846FFF7B2
:1012D00071FE22690346B0FBF2F502FB15053A46A2
:1012E00029463046FFF701FF024620B10368294630
:1012F0003046FFF726FFA3686568013BA3602846D8
:1013000002F0C7FB05F1080002F078FC284602F065
:1013100070FA08B0BDE8F087054668E71A469FE70F
:101320002DE9F0470C46064601F12C0988B04946E4
:1013300004F1700001F03EFB94F8273006F1040838
:10134000022B04F108074FF0000375D1032867D87A
:10135000DFE800F002125C690024214631707470ED
:1013600044463D460FCD0FC40FCD0FC430462B6809
:10137000236008B0BDE8F08749464FF0000904F14A
:1013800011051422284603F049FD04AB84F825908A
:101390002846029303F028FD0F2805EB000A019070
:1013A00007D94A4601A902A802F00EFC019B02904F
:1013B0000493294600255246029802F035FC019B11
:1013C000029A0393D554012302A884F82630FFF72C
:1013D000F1FD616D0346B0FBF1F002AA01FB103193
:1013E00004F15000FFF781FE2B4608B1026832BBC2
:1013F00001252374E36808AA0133E36002F81C5D49
:1014000002A904F14400FFF7D9FE1EE00125294698
:10141000637423682574DB6984F826502046984756
:10142000002401219AE704210125637423682174B3
:1014300084F82650DB69F1E73370737090E702217E
:1014400023682174DB692046984702A82C4602F0E5
:10145000D5FBE6E710B5044600F0DCF994F8D0308F
:101460002BB104F18C00BDE8104000F075BB10BD3D
:1014700010B5044600F07EF804F18C00BDE8104081
:1014800000F0ECBA10B5044600F049F904F18C0004
:10149000BDE8104000F052BA10B5044600F05DF807
:1014A00004F18C00BDE8104000F056BB10B50446B6
:1014B00000F059F804F18C00BDE8104000F04CBB7E
:1014C00070B50446194BD0F8A850036065B12946A1
:1014D0002B6951F8086B13B1032208469847284638
:1014E00002F087F93546F1E7D4F8A42029469200A6
:1014F000D4F8A00003F04EFBD4F8A00004F1B80328
:101500009842C4F8AC50C4F8A85001D002F071F968
:10151000D4F8900008B102F06CF904F1700001F009
:1015200047F9204600F0B2F8204670BDA85F0008D9
:1015300010B50446FFF7C4FF204602F05AF92046D2
:1015400010BD704770477047704710B50446282299
:10155000002103F01FFB204610BD002380F8273038
:10156000437403747047012380F8273000234374C9
:101570000374704701747047014A03C802F0A2B9AE
:1015800007690FC700F1080373B5044603600D46F1
:10159000E1B1084603F028FC0F2805EB0006019096
:1015A00007D9002201A9204602F00EFB019B206012
:1015B000A36032462946206802F036FB002120460F
:1015C000019B22686360D15402B070BD014802F0F3
:1015D00068FA00BFE05F000810B54FF07E540F4A74
:1015E000416000F144014164816400F168010260DE
:1015F0000165002201210466C824C2644165826538
:10160000C26542668266C4668260C26042740274C9
:10161000826280F8272080F8261010BD2C60000818
:101620000B6883604B68C360002303740B6A83629A
:10163000CB7F80F82730012380F82630704770B5C3
:1016400005460468AC4209D0204650F8086B02F009
:10165000D5FA204602F0CDF83446F3E770BD70B5F8
:10166000054684684CB1204650F8046B02F0C6FA77
:10167000204602F0BEF83446F4E76A68214692003C
:10168000286803F087FAEC60AC6070BD38B5054699
:101690000446094B503045F8443BFFF7E0FF206D0E
:1016A00004F16803984201D002F0A3F82846FFF73E
:1016B000C6FF204638BD00BF2C60000810B50446A8
:1016C000FFF7E4FF204602F094F8204610BD70B505
:1016D00001230446002580F82630C56085604574E6
:1016E000057404F144065030FFF7B9FF3046FFF7A8
:1016F000A6FF6664A664E56470BD38B590F827302F
:1017000004460D462BB9002908DDFFF7E0FFA5626E
:1017100001E00029FBDA022384F8273038BD0022DB
:1017200080F82720FFF7D3BF08B542684B689A427C
:1017300008D14AB10968006803F0F8F9B0FA80F0FE
:10174000400908BD002008BD012008BD10B50C46A9
:101750008368013B8360084602F09BF904F10800AE
:1017600002F04CFA2046BDE8104002F042B870B5D5
:10177000044608460E46FFF7FFFE65680346B0FBC9
:10178000F5F1324605FB11012046FFF7AEFC08B12A
:10179000006800B9002070BD10B50B460C6A4168A6
:1017A000B4FBF1F201FB1241026852F821201468E7
:1017B000A34202D1FFF7C5FC10BD2246F7E7F0B502
:1017C000044687B0684604F15005FFF7DBFE694622
:1017D0002846FFF7CCFF014610B12846FFF7DCFF93
:1017E000656C04F14406AE420CD02846694650F8B8
:1017F000087BFFF799FF18B129463046FFF7A6FF8F
:101800003D46F0E7E3686846013BE36002F0F6F925
:1018100007B0F0BDF0B590F8277089B0022F0446EC
:101820002FD1002500F11106152280F826503046F0
:1018300003F0F4FA314602A8FFF7A4FE02A8FFF76E
:101840009BFE616D0346B0FBF1F002AA01FB103173
:1018500004F15000FFF749FC08B103686BB9A368B5
:1018600008AA0133A3600123257402F8193D02A9D7
:1018700004F14400FFF7A2FC00E0277402A802F084
:10188000BDF909B0F0BD0000012A07D003D3022A38
:1018900006D000207047034B0360FAE70160F8E7C9
:1018A0000B68F9E76C600008012A07D003D3022A0D
:1018B00006D000207047034B0360FAE70160F8E7A9
:1018C0000B68F9E764600008836810B5044613B13B
:1018D000032201469847204610BD13B50C4601A8C7
:1018E000FEF7B2FE0123626820789340ADF8043021
:1018F000032300F580108DF806304230A36801A95B
:1019000080028DF80730FEF74DFE02B010BD0123B6
:1019100008784A6800F580109340423099B28002FE
:10192000FEF79ABE012308784A6800F580109340BC
:10193000423099B28002FEF791BE000010B5044615
:10194000016C0C31FFF7EEFF216C20461831FFF7D8
:10195000E9FF0023044A84F844302046BDE81040E3
:10196000137001F0D9BB00BF0C0200207FB5044604
:1019700000250E4601F090FB374B26641C60A563E2
:1019800084F83C5084F8445030780426012106FA4B
:1019900000F0FEF7DDFE236C0121187B06FA00F053
:1019A000FEF7D6FE236C0121187E06FA00F0FEF742
:1019B000CFFE216C2046FFF790FF216C20460C31B2
:1019C000FFF78BFF216C20461831FFF786FF20467A
:1019D000FFF7B4FF01210846FEF7C6FE0DEB060037
:1019E000FFF728F848F69F434FF08040ADF80430E9
:1019F000ADF80A50ADF80650ADF808508DF80C500F
:101A0000FEF7EAFE0DEB06014FF08040FEF7C8FF3F
:101A100001214FF08040FFF73BF829464FF080400E
:101A2000FFF728F801224FF080401146FFF720F819
:101A30001C238DF8003001234FF4E0608DF8033053
:101A40008DF801508DF80250FEF792FC6846FEF7C3
:101A500099FC204604B070BD100200201FB504465A
:101A6000036C6A46996A0E4B009003930D4B0293E8
:101A700001F045FA6846FFF727FF236C0A4A996A86
:101A80005B6A0392094A1944029220466A4600940E
:101A900001F035FA6846FFF717FF04B010BD00BF2C
:101AA000C51A000889180008451B0008A918000875
:101AB0000122016C024B0C311A70FFF728BF00BFE6
:101AC0000C0200200068FFF7F3BF00000022016C49
:101AD000024B0C311A70FFF725BF00BF0C0200202B
:101AE000012110B54FF08040FEF7D6FF01280146D6
:101AF00020D14FF08040FEF7DAFF0F4B1C680F4BF0
:101B000020461B786BB9FFF7D3FF236C4FF0804062
:101B1000BDE81040596A0A4B1B68594389B2FEF769
:101B2000B5BFFFF7D3FFBDE8104000214FF0804064
:101B3000FEF789BF10BD00BF100200200C0200207C
:101B4000080200200068FFF7C1BF0122016C80F885
:101B500044201831FFF7DBBE0022016C80F84420DE
:101B60001831FFF7DFBE4FF4FA62036810B5B3FB1C
:101B7000F2F3826B0446934209D9836390F83C30B8
:101B8000016C2BB1FFF7CEFE002384F83C3010BD72
:101B9000FFF7BDFE0123F8E7034B044A1B68B3FBC4
:101BA000F2F3034A136070472C0000200051250215
:101BB0000802002010B50446024B036000F0F6F95D
:101BC000204610BDF460000810B50446FFF7F2FF90
:101BD000204601F00EFE204610BD000010B5044660
:101BE00000F0ECF92346044A204643F8042BC4F8DD
:101BF00008340023237610BDF4600008012A07D0C2
:101C000003D3022A06D000207047034B0360FAE793
:101C10000160F8E70B68F9E75061000810B5044669
:101C2000024B036000F0C2F9204610BD206100089D
:101C300010B50446FFF7F2FF204601F0DAFD20461A
:101C400010BD000070B50E6805461849304614688E
:101C500003F0C0F830B920462D6802F01BFFC5F82C
:101C6000080470BD1249304603F0B4F830B920467C
:101C70002D6802F00FFFC5F80C0470BD0D49304609
:101C800003F0A8F830B920462D6802F003FFC5F82C
:101C9000280470BD0849304603F09CF828B9204656
:101CA0002D6802F0F3FE85F8270470BD2861000856
:101CB000316100083C610008476100081FB5044617
:101CC00000F07CF90A4B6A4623600A4BD4F80414EE
:101CD0000393094B201D0293009400F075FF029BB3
:101CE0001BB10322694668469847204604B010BDE0
:101CF00020610008451C0008FD1B000810B50446C3
:101D0000024B036000F052F9204610BDAC610008A0
:101D100010B50446FFF7F2FF204601F06AFD2046A9
:101D200010BD0000002210B50446114600F046F92F
:101D3000014B2046236010BDAC61000810B504467D
:101D4000024B036000F032F9204610BDFC61000830
:101D500010B50446FFF7F2FF204601F04AFD204689
:101D600010BD000010B50446024B0360FFF7E6FF0C
:101D7000204610BD0C62000810B50446FFF7F2FFC4
:101D8000204601F036FD204610BD000038B505465E
:101D900000222C46114600F023F9074B074944F86E
:101DA000043B204602F0B8FF204603F01DF8C5F8BA
:101DB0000404284638BD00BF0C6200081462000805
:101DC00010B50446024B0360FFF7B8FF204610BD74
:101DD0004862000810B50446FFF7F2FF204601F004
:101DE00008FD204610BD000038B5054600222C46EF
:101DF000114600F0F5F8074B074944F8043B20462C
:101E000002F08AFF204602F0EFFFC5F804042846DE
:101E100038BD00BF486200085062000810B5044693
:101E2000024B0360FFF78AFF204610BD886200085E
:101E300010B50446FFF7F2FF204601F0DAFC204619
:101E400010BD000070B5064600220C46354686B02F
:101E5000114600F0C5F80E4B0E4945F8043B236AC5
:101E600028460493E37F0393A37F029304F10903BD
:101E70000193237A009394E80C0002F04DFF28466A
:101E800002F0B2FFC6F80404304606B070BD00BFD1
:101E9000886200089062000810B50446024B036097
:101EA000FFF74CFF204610BD2C63000810B5044618
:101EB000FFF7F2FF204601F09CFC204610BD000019
:101EC00038B5054600222C46114600F089F8084B2B
:101ED000022244F8043B07490123204602F01CFF7C
:101EE000204602F081FFC5F80404284638BD00BF33
:101EF0002C63000834630008012A07D003D3022AA8
:101F000006D000207047034B0360FAE70160F8E752
:101F10000B68F9E79063000810B50446024B0360B4
:101F200000F044F8204610BD8863000810B5044650
:101F3000FFF7F2FF204601F05CFC204610BD0000D8
:101F400038B50B46044606491868156802F042FF8A
:101F500028B92846246802F09DFDC4F8080438BD5D
:101F60003C6100081FB5044600F028F80C4B6A4697
:101F700023604FF0FF33C4F808340A4BD4F804143C
:101F80000393094B201D0293009400F01DFE029B59
:101F90001BB10322694668469847204604B010BD2D
:101FA00088630008411F0008F91E0008704710B53B
:101FB000044601F01EFC204610BD000038B5074B5A
:101FC00004461546036019B9C4F80414204638BD08
:101FD000043002F0BAFDC4F80454F7E7D8630008EF
:101FE00010B50446FFF7EAFF014B2046236010BD01
:101FF000FC61000810B50446034B0360D0F8140CD4
:1020000001F0F7FB204610BDFC65000810B5044642
:10201000FFF7F0FF204601F0ECFB204610BD00006A
:1020200010B50446024B0360FFF7C0FF204610BD09
:10203000CC64000810B50446FFF7F2FF204601F01B
:10204000D8FB204610BD000010B50446024B0360CB
:10205000FFF7ACFF204610BD3C65000810B50446F4
:10206000FFF7F2FF204601F0C4FB204610BD000040
:1020700010B50446024B0360FFF798FF204610BDE1
:102080002C65000810B50446FFF7F2FF204601F06A
:10209000B0FB204610BD000010B50446024B0360A3
:1020A000FFF784FF204610BD1C65000810B50446EC
:1020B000FFF7F2FF204601F09CFB204610BD000018
:1020C00010B50446024B0360FFF770FF204610BDB9
:1020D0000C65000810B50446FFF7F2FF204601F03A
:1020E00088FB204610BD000010B50446024B03607B
:1020F000FFF75CFF204610BDFC64000810B50446E5
:10210000FFF7F2FF204601F074FB204610BD0000EF
:1021100010B50446024B0360FFF748FF204610BD90
:10212000EC64000810B50446FFF7F2FF204601F00A
:1021300060FB204610BD000010B50446024B036052
:10214000FFF734FF204610BDDC64000810B50446DC
:10215000FFF7F2FF204601F04CFB204610BD0000C7
:1021600010B540F224412048FEF73CFD012839D14A
:102170001D48FEF72FFD00211C48FEF7E2F91C4B1D
:102180001C6894F8093C3BB304F209430022C4F8EC
:102190000C3C83F8FF2394F8093C144883F00103B6
:1021A00084F8093C012384F80A3CFEF7DFF9C0F506
:1021B0008060C4F8100C4FF480610C48FEF7D4F92D
:1021C00094F8093C5BB104F2094408480121C46059
:1021D000BDE81040FEF7B5B904F60903D6E704F6EA
:1021E0000904F2E710BD00BF00380140580002406A
:1021F000140200200D4B10B54FF400501C68FEF780
:10220000B9F9012806D10021094884F80814FEF71D
:1022100098F905E04FF40040FEF7ACF90128F2D040
:10222000BDE810404FF48050FEF7B2B91402002010
:10223000440002402DE9F04F00240125704B95B079
:102240000360704B064680F80844186080F8095C0B
:10225000416080F80A4CC0F80C4CC0F8104CC0F833
:10226000144C29460420FEF773FA29464FF48040A7
:10227000FEF76EFA29462846FEF75EFA03A8FEF737
:10228000E3F94FF40073ADF80C3018235E4F03A947
:1022900038464FF4806A8DF80F30FEF783F9042337
:1022A00003A938468DF80F30ADF80CA0FEF77AF987
:1022B00005A8FEF757FC736807F540571B6B05A987
:1022C00005930C233846ADF81E30ADF81840ADF834
:1022D0001A40ADF81C40ADF82040FEF7EDFB384643
:1022E0004021FEF77BFC2A46384640F22441FEF7A7
:1022F00050FC29463846FEF740FC252304A88DF8FB
:1023000010308DF812508DF811408DF81350FEF7F3
:1023100039F809A8FEF708F906F108024FF080091C
:102320000A924FF4005B1022DFF8E880374B4046FA
:10233000099301930B920D940F941094119413949C
:10234000CDF830A0CDF83890CDF848B0FEF754F86D
:1023500009A94046FEF7CAF82A4640460221FEF780
:10236000FBF82A4608214046FEF7F6F80E2204A89C
:102370008DF810208DF812508DF81350FEF702F8EA
:102380002A4649463846FEF71CFC21464046FEF7E1
:10239000D8F8019B0B940D940F94109411941394FE
:1023A0001B4C0993204606F209430A93CDF830A04E
:1023B000CDF83890CDF848B0FEF71EF809A92046B0
:1023C000FEF794F82A4638464021FEF7FAFB2946E4
:1023D0002046FEF7B6F82C2001F0A4FA054609AC19
:1023E00007460FCC0FC50FCC0FC594E8070085E852
:1023F00007003046C6F8147C15B0BDE8F08F00BF6A
:10240000FC65000814020020000801400438014067
:102410005800024044000240B2F5806FA8BF4FF45C
:102420008062F8B501261746094D00F1080480F8CE
:102430000864204602F089FBB9B22846FEF794F8FA
:10244000EC6031462846BDE8F840FEF77AB800BF98
:10245000440002400B4610B490F80824002AFBD137
:1024600040F2FE34D3F80424191DA2424FF00A04AE
:10247000D5BF8C5483F8034401324FF4806210BC02
:10248000FFF7CABF07B5826801910AB901F00FFBD7
:10249000C36801A9984703B05DF804FB2DE9F0413A
:1024A0000E680568176860490C22304602F0A4FCEB
:1024B00068B94FF4816001F035FAA7F10C0206F11A
:1024C0000C010446FFF77AFD584B23600EE006220C
:1024D0005749304602F090FC90B940F20C4001F0B0
:1024E00021FABA1FB11D0446FFF73CFD281D214605
:1024F000FFF7C8FF23682046BDE8F0415B68184736
:1025000006224C49304602F077FC804650B94FF421
:10251000816001F007FA424641460446FFF74EFD4E
:10252000454BD2E705224549304602F065FC80461E
:1025300050B94FF4816001F0F5F942464146044636
:10254000FFF73CFD3E4BC0E705223E49304602F016
:1025500053FC48B940F22C4001F0E4F97A1F711D98
:102560000446FFF7ABFBC1E707223749304602F0CC
:1025700043FC50B94FF4816001F0D4F9FA1FF11D0A
:102580000446FFF71BFD314B9FE7092230493046D7
:1025900002F032FC58B940F20C4001F0C3F9A7F147
:1025A000090206F109010446FFF718FB9EE708221D
:1025B0002849304602F020FC804650B94FF4816033
:1025C00001F0B0F9424641460446FFF7F7FC224BC2
:1025D0007BE706222149304602F00EFC804650B9C6
:1025E0004FF4816001F09EF9424641460446FFF7F0
:1025F000E5FC1B4B69E70A221A49304602F0FCFB56
:1026000038B94FF4816001F08DF90446FFF78AFB79
:102610006CE74FF4816001F085F93A463146044693
:10262000FFF7CCFC104B50E7446500081C65000820
:102630005165000858650008DC6400085F65000803
:10264000FC640008656500086B650008EC64000820
:10265000736500087D6500082C6500088665000824
:102660003C6500088D6500080C65000838B500233E
:1026700083608B6804460D462BB102229847EB68B5
:10268000E360AB68A360204638BD000070B5054626
:10269000032A05D8DFE802F0020608160E4B2B606D
:1026A000002070BD0B68FAE714200C6801F03AF9BD
:1026B0002146064651F8043B40F8043BFFF7D6FF9D
:1026C0002E60EDE70468002CEAD0201DFFF7FCF82F
:1026D000204601F08EF8E3E7A06500082DE9F041FF
:1026E00090F80A3C8CB00D4603F0FF06ABB94FF4EE
:1026F000816001F017F9044632463146FFF75EFC6F
:10270000284B284623602146FFF7BCFE236820465D
:102710005B6898470CB0BDE8F081002540F2FF33BC
:1027200080F80A5CD0F8107CD0F80C2CBB42A8BF13
:102730003B4608ACC0F8105CD554D0F80C8C079020
:102740002046FFF793FF1420059501F0EBF80346B0
:102750000246079901AE43F8041B94E8030086E89B
:10276000030093E8030084E8030096E8030083E88D
:1027700003000A9B1169D3600B9B039213610A4B00
:102780000B910693094B03AA3946404605930A95D7
:1027900000F096FA03A8FFF797F82046FFF794F8A1
:1027A000B8E700BFCC6400089D2400088D2600080F
:1027B000064B10B504460360806808B101F01DF8AF
:1027C000E06808B101F019F8204610BD2C66000839
:1027D00010B50446FFF7ECFF204601F00AF820464A
:1027E00010BD000038B540F224411B48FEF7FAF94D
:1027F000012805462FD11848FEF7ECF900211748AB
:10280000FDF79FFE164B15481C68217CE268A36803
:10281000002908BF13460022636183F8FF21237C4F
:1028200083F0010323746574FDF7A0FEC0F500700A
:10283000A0614FF400710948FDF796FE217CA36862
:10284000E2680648002908BF13462946C360BDE870
:102850003840FDF776BE38BD004400406C000240B1
:10286000180200202DE9F041002401264C4B92B0C3
:1028700003604C4B05461860067441604474446123
:1028800084614FF4007001F05EF8A8604FF40070AE
:1028900001F059F83146E8600420FDF759FF314650
:1028A0004FF40030FDF760FF31463046FDF744FF3E
:1028B0004FF0040801A8FDF7C7FE18233A4F0DEBAF
:1028C000080138468DF80730ADF80480FDF76AFE40
:1028D00008230DEB08013846ADF804308DF8078069
:1028E000FDF760FE03A8FEF73DF96B68A7F54447C6
:1028F000DB6A384603930C230DEB0301ADF8163069
:10290000ADF81040ADF81240ADF81440ADF81840E5
:10291000FEF7D2F838464021FEF760F932463846D5
:1029200040F22441FEF735F931463846FEF725F9E5
:1029300026238DF80830022302A88DF80A308DF87E
:1029400009408DF80B60FDF71DFD07A8FDF7ECFDB4
:10295000164B09940793AB680B9408934FF40073DC
:102960000A9380230C934FF400530D940E940F940C
:1029700011940F4C10932046FDF73EFD07A9204609
:10298000FDF7B4FD324638464021FEF71AF92046DD
:102990003146FDF7D6FD284612B0BDE8F08100BFF4
:1029A0002C66000818020020000801400444004082
:1029B0006C00024038B50C46417C002201F0FF0358
:1029C000A9B1427481698261406900F0CBF8054683
:1029D00008B9022038BD142100F0DAF80028F8D038
:1029E00014222946204602F019FA012038BD184663
:1029F00038BD0000012A07D003D3022A06D00020E8
:102A00007047034B0360FAE70160F8E70B68F9E7EA
:102A1000B866000870B50C6806464FF48071204611
:102A2000156802F010FA00284CD02749204602F021
:102A3000D1F928B92846346802F028F8206170BD21
:102A40002249204602F0C6F928B92846346802F027
:102A50001DF8E06170BD1E49204602F0BBF928B99F
:102A60002846346802F016F8606270BD19492046A5
:102A700002F0B0F928B92846346802F00BF8A062D9
:102A800070BD1549204602F0A5F928B928463468DA
:102A900002F000F8206370BD1049204602F09AF958
:102AA00028B92846346801F0F5FFE06270BD0C4992
:102AB000204602F08FF928B92846346801F0E6FF75
:102AC00084F8340070BD00BF5866000865660008D1
:102AD00073660008806600088E6600089B66000822
:102AE000AD660008034630B5104C03F10C0594E8C0
:102AF000070083E8070004F10C0207CA183485E8D0
:102B0000070094E8070003F1180585E8070040F284
:102B1000DC525A6240F6B8329A624FF4E132DA621D
:102B20001A630122184683F8342030BD3466000849
:102B30001FB50B461146094A00900392084A1846F1
:102B400002926A4600F040F8029B1BB103226946DC
:102B50006846984705B05DF804FB00BF152A0008D9
:102B6000F529000838B50D460849044602F077F902
:102B700058B1031B1A1D1833AB424FF0000303DAA0
:102B800014442375043038BD184638BDED6600087E
:102B90000246131A994207DD12F9013B303BDBB2C2
:102BA000092BF6D9002070470120704707B5009225
:102BB000826801910AB900F07AFFC3686A4601A9E8
:102BC000984703B05DF804FB2DE9F84F0446481C14
:102BD0000D46914600F0B7FE002680462A46214663
:102BE00002F01CF908F805602C49404602F052F941
:102BF00007464FF4807000F0A6FE0346054603F832
:102C0000016B00F5807203F8016B9A42FBD14FF41F
:102C1000807000F098FE03460446002103F8016B23
:102C200000F5807203F8011B9A42FBD1BFB923461D
:102C30002A461B49384602F093F822462946484660
:102C4000FFF7B4FF0126284600F0D3FD204600F030
:102C5000D0FD404600F0CDFD3046BDE8F88F00269F
:102C6000B246DFF83CB023462A465946384602F0C1
:102C700077F80128DCBF85F800A084F800A0224680
:102C800029464846FFF792FF0449002002F002F966
:102C9000013607460028E6D1D5E700BFF2660008F6
:102CA000F466000807B50092826801910AB900F045
:102CB000FEFEC3686A4601A9984703B05DF804FBAD
:102CC000F8B50E460A210546174602F075F8044687
:102CD00038B9324629463846FFF7E4FF0126304628
:102CE000F8BD0026621B29463846651CFFF7DAFF4F
:102CF0000A21284602F060F8013604460028F1D186
:102D0000EDE770B502254C1E94FBF5F491420ADD07
:102D100050F824609E4206D940F82160661E214684
:102D200096FBF5F4F2E740F8213070BD0368F0B58A
:102D300053F821308BB11C681768626897420CD039
:102D4000226862B15668456823461446B6FBF5F220
:102D500005FB12629142F0D000231846F0BD1346E5
:102D6000FBE738B5002383608B6804460D462BB122
:102D700002229847EB68E360AB68A360204638BD49
:102D800010B50446006808B100F033FD204610BDC0
:102D90002DE9F0431F46012385B00093C368044624
:102DA0000D46904600F11001426802A800F0B8FEFE
:102DB0009DF80830002B46D0039D012D1FD12646DB
:102DC000002346F8183F0020A646A3684EF8080FD7
:102DD00063B35968D3F800C0B1FBF5F205FB1212DA
:102DE00056F82210D9B9A1681960A36046F822E00C
:102DF000196809B146F8203063461046E8E7B5F196
:102E0000804F01D300F04AFE4FEA8509484600F0A2
:102E100089FD4A460021064601F0BCFED3E7096859
:102E2000196056F8222013600246E5E7234653F85E
:102E3000180B984201D000F0DCFCB8FBF5F365609C
:102E400005FB138526602368AE0053F825205AB190
:102E500012683A6053F825301F603846E368013342
:102E6000E36005B0BDE8F083A2683A60A76042B1B4
:102E70003A6861685068B0FBF1F201FB120243F856
:102E8000227004F108029A51E7E72DE9F84390E82F
:102E90001800E41AA41014BF23460123E4180646C0
:102EA000894602D2B4F1804F25D36FF04044A00090
:102EB00000F038FD0746D6F800807568D9F8003074
:102EC000A5EB0805EF4218BF7B51AB0804D02A469A
:102ED0004146384601F044FE04353D44B8F1000F48
:102EE00002D0404600F085FC07EB84043760756033
:102EF000B460BDE8F883002CD9D12746DBE72DE983
:102F0000F047436B88B0322B0446904667DC0123C0
:102F1000814680F8303059F8146B83690E44B6FB53
:102F2000F3FA03FB1A6A08AF47F81C6D3A4651469C
:102F30004846FFF7FBFE08B1056885B9182000F088
:102F4000F1FC0023019A03604260036132460346AC
:102F500051464846FFF71CFF00F1080500E0083520
:102F600004AE41463046FFF7FCFE96E8030002AB94
:102F700083E8030095E8030086E8030093E8030074
:102F800085E80300AA68069B0692EA68AB60079B87
:102F900030460792EB60FEF797FCA368E268934225
:102FA00018D0019A03B11A600433A3606068A36863
:102FB0000022191A891053F8043C0139FFF7A1FEC9
:102FC000002384F83030636B01980133636308B0E9
:102FD000BDE8F0873946201DFFF757FFE6E70020E0
:102FE000F5E7F0B50E460221551E95FBF1F59C461E
:102FF0003146A94210DA4C1C640004F1FF3E50F83F
:103000002E7050F824309F4238BF744650F8247018
:1030100040F821702146ECE7D3070CD40224023A91
:1030200092FBF4F2914206D101FA04F24900013117
:1030300050F8214084503246BDE8F0406346FFF727
:1030400060BE0023F7B503604360836011680446E7
:103050000160136043685168416053608368916800
:103060008160936007684668F61B072E10DDB61076
:10307000B51E6D104FF0000257F8253029468DF827
:10308000002038463246FFF7ACFF0DB1013DF1E7B5
:10309000204603B0F0BD000030B50025044685B0E1
:1030A00001AA694640F8045B019502950395FFF774
:1030B000C8FF01A8FFF764FE1C22294604F1140092
:1030C00001F068FD04F12C0363610123A3614FF05B
:1030D0007E5363620C4B84F83050042065631C609F
:1030E000FDF77EF9094B1B68013BB3F1807F08D2E5
:1030F000F021074A5360074B83F82310072395609C
:103100001360204605B030BD200200201C020020C4
:1031100010E000E000ED00E070B50025044688B046
:1031200001AA694604A8019502950395FFF789FF56
:10313000049B60686360059B0495A360069B0595EE
:10314000E360069508B100F054FB04A8FFF718FEF1
:1031500001A8FFF715FEE5694DB1284650F8086B48
:10316000FEF7B2FB284600F044FB3546F4E7A269BF
:1031700029469200606901F00DFD2562E5616563F5
:1031800008B070BDF8B51D460368044653F8210029
:10319000904226D12E6856B1D6F804E06768BEFB8F
:1031A000F7F007FB10E081420CD043F8202053F8E1
:1031B000217004F1080087424FF0000008BFA660AC
:1031C00043F8210028462B68136050F8086BFEF77F
:1031D0007BFB284600F00DFBE3683046013BE360D3
:1031E000F8BD28680028EDD047686668B7FBF6F0A0
:1031F00006FB1070814218BF43F82020E2E7000070
:103200002D4B70B51C6888B023680133236094F897
:10321000303003F0FF0143BB6068A268824224D0D3
:103220000568236803959D421FD8131A072B0BDDF1
:103230004FF0000652F8043C42F8045D121A8DF873
:1032400000609210FFF7CDFEA36804F11406043B62
:10325000A360A36903AAB5FBF3F1304603FB115148
:10326000FFF764FD08B10568BDB908B070BD1A4626
:1032700013689D42FBD12B463046FFF783FF069B28
:103280000BB900F014FC04A8079B9847636B04A8D3
:10329000013B6363FEF718FBE7E705F1080104A8AB
:1032A000FFF75FFD6A68A369B2FBF3F103FB11212D
:1032B000636953F82120DBE7200200204FF47A7283
:1032C000034B1B68B3FBF2F3024A1360704700BF65
:1032D0002C0000201C020020BFF34F8F0549064B35
:1032E000CA6802F4E0621343CB60BFF34F8F00BFA4
:1032F000FDE700BF00ED00E00400FA05012A0346E7
:1033000007D003D3022A06D000207047044A026087
:10331000FAE70160F8E703C983E80300F4E700BFB8
:1033200018670008F8B5054604460027174B45F80E
:10333000043B2846FFF7D6FB2946E76304F140002B
:10334000FEF778FFD42000F0EDFA06462946FDF797
:1033500037FEE663142000F0E5FA0646E26B2946E4
:10336000FDF710FE0A4B377333603761C4F85C6CAD
:103370000C2000F0D7FA0646E26B2946FDF702FE64
:10338000044BC4F8586C33602046F8BD5C670008F5
:10339000005F0008445F000808B50120FDF782F9CE
:1033A0006120FDF705FA0028FAD045F25550FDF7E7
:1033B00057F90420FDF75AF93220FDF75DF9FDF7C2
:1033C00061F9BDE80840FDF765B910B50446C16B69
:1033D000ADF5816D08316846FEF734FD694604F1AC
:1033E0004000FFF737F86846FEF718FD0DF5816DD0
:1033F00010BD10B50446D0F85C0C03689B68984774
:10340000D4F8580CBDE8104003689B6818470000CA
:103410002DE9F0410546ADF5816D0E4600297FD0BE
:103420000023534A5349304600F0E9F9034688B176
:1034300000F58161E86BFEF7F3F800246846FEF7BB
:10344000A5FC05F140006946FFF704F86846FEF761
:1034500089FC60E0484A4749304600F0D0F904460C
:1034600050B1E86BD4F80814036801249B689847AE
:103470002846FFF7AAFFE1E70346404A3D493046A8
:1034800000F0BDF900284DD103463D4A3949304688
:1034900000F0B5F9074648B1E86BD7F8081403689F
:1034A0009B6A98472846FFF790FFC6E70346354AD0
:1034B0003049304600F0A3F9044600283AD10346CB
:1034C000314A2C49304600F09AF978BB03462F4A1E
:1034D0002849304600F093F9044630B1D0F804246E
:1034E000011D281DFFF724FBA7E70346284A2149B1
:1034F000304600F084F9034608BB264A1D49304691
:1035000000F07DF938BB0023234A1A49304600F009
:1035100076F940BB044620460DF5816DBDE8F0818B
:103520000C46F8E7E86B03681B6B98472846FFF7E3
:103530004CFF83E7E86B0368DB6A9847B2E76846AD
:10354000FEF7BEFC05F140006946FEF783FF6846C2
:10355000FEF7A2FC72E7E86B03685B6B98472846AE
:10356000FFF747FF9EE70D4A0D4B1A60FFF7B4FEC9
:103570000C610008BC630008E060000804640008F7
:10358000746300083C640008206400087C64000840
:103590009C640008B864000898610008EFBEADDEC6
:1035A000F0FF0020002310B58CB08DF807300DF12E
:1035B000070303931C4B029005931C4B044602A97E
:1035C00040300493FFF78AF8049B1BB102A9032241
:1035D00008469847E16B02A80B681B6A98479DF85C
:1035E000093013B101238DF807309DF807307BB106
:1035F00094F8383003F2163354F823000368DB687C
:10360000984728B9E06B0DF1150103685B6A98478C
:103610009DF8083013B12046FFF7D7FEE06B036832
:103620009B6998470CB010BD8D360008FD3200082C
:10363000044600B5ADF20C4D6846FEF7D5FB04F12B
:1036400040006946FEF706FF2046FFF7A5FE20462C
:10365000FFF7A8FFFDF716F8F9E7000038B50546B3
:103660000C4631B10023074A0749204600F0C7F84D
:1036700028B921462846BDE83840FFF7C9BE0020DA
:1036800038BD00BFE8630008BC63000810B50446FD
:1036900009680068FFF7E2FF62681378002B08BF33
:1036A0000346137010BD00000D4B10B504460360B7
:1036B000C06B10B103685B689847D4F85C0C10B11C
:1036C00003685B689847D4F8580C10B103685B68CE
:1036D000984704F14000FEF78DFC204610BD00BF66
:1036E0005C67000810B50446FFF7DEFF204600F0D7
:1036F00080F8204610BD10B54FF4466000F012F976
:103700000446FFF70FFE2046FFF792FF002010BD92
:103710007FB5102300240293036815469E69009428
:103720006B468DF8044003941268B0479DF804304E
:1037300003F00603062B09BF01202046009B2B60E7
:1037400004B070BD009890420CBF06200120704765
:1037500010B50446024B036000F07BF9204610BD13
:103760009C67000810B50446FFF7F2FF20460821C9
:1037700000F041F8204610BD38B515461C4600F053
:103780006BF920B10823E36006232560237138BD5F
:103790002DE9F04105460C4616461F4600F05CF93F
:1037A00048B9032F07D82368324629462046BDE88A
:1037B000F0415B691847BDE8F0812DE9F041069EB4
:1037C0009846089B07469E421546099C03D10799D7
:1037D00000F042F958B94146384600F03DF918B1B9
:1037E000012326602571A3710020BDE8F081657179
:1037F000FAE701F073B9FFF7FCBFFFF7FABF2DE955
:10380000F0411D460368164653F8082C04460F463F
:10381000811853F8040C002388B005938DF81830F4
:103820008DF819308DF81A3010230793A35853F8E8
:10383000043C984203D0002008B0BDE8F081036842
:103840008DE8820005AA03920294D3F81C80062218
:1038500033462946C047059A002AECD09DF81A0045
:1038600000F00603062B2AD09DF819109DF8183099
:103870000B4003F00603062B21D001F005010429BB
:10388000D9D040B9002D0EDB5019844214BF01205D
:1038900006208DF81A009DF81A3003F00603062B57
:1038A000C9D10598C8E7AB1C07D0336800941C6ADF
:1038B00029463B463046A047EBE70120E9E71046A2
:1038C000BAE7000030B50D46154B4A404C1B032D9E
:1038D000044408D924685A435C4384EA14645C4372
:1038E000043D6240F2E721F0030401F003010229E4
:1038F00000EB040510D003290BD0012902D1005D93
:1039000042405A4382EA523203FB02F080EAD0304E
:1039100030BDA97882EA0142697882EA0122EEE7A5
:1039200095E9D15B10B5002814BF04460124204658
:1039300001F0CCF830B900F0C9F908B9FDF775F914
:103940008047F4E710BDFFF7EDBF000010B5044657
:10395000024B0360FFF7FCFE204610BDFC67000829
:1039600010B50446FFF7F2FF20460C21FFF743FF96
:10397000204610BD2DE9F041069E804696420F4636
:1039800014461D4603D1194600F066F858B9D8F818
:1039900008002246036806961E6A39462B46B4463E
:1039A000BDE8F04160470620BDE8F0812DE9F14F08
:1039B0000E4619468346174699460A9CDDF82CA008
:1039C000DDF830800D9D00F047F890B1002E2C609E
:1039D0002F7109DB3444A0450CBF06240124AC71CF
:1039E000002001B0BDE8F08F0236F9D10123AB71A0
:1039F000F6E7444504D15146584600F02DF888B901
:103A0000DBF808003A4603680D95CDF83080CDF814
:103A10002CA00A94DC6931464B46A44601B0BDE8AF
:103A2000F04F60476F71DBE72DE9F04104460D462A
:103A300016461F46FFF7A0FE48B9A0683246036845
:103A400029469C693B46A446BDE8F0416047BDE875
:103A5000F081704700207047814208B50ED0406861
:103A600003782A2B0CD049680B782A2B08BF013128
:103A700001F0B0F9B0FA80F0400908BD012008BD9E
:103A8000002008BD4B68016043604B6818604860C7
:103A900070470368426813605A60704708B5FDF7C5
:103AA000C4F808B5FDF7C1F808B5FDF7BEF808B5CC
:103AB000FDF7BBF80B29F8B505460ED9FB23164ACE
:103AC000002B23DD581052F8206002EB80048E4258
:103AD0001AD21B1A221D013BF2E7104B5C5C2046F8
:103AE00000F0B4FC064628680F4600F0C1FC024610
:103AF0000B463046394600F00FFD00F039FA00F071
:103B0000A5FF68602046F8BD0346D9E71468204643
:103B100000F08CFCE6E700BF4C6800083C6C000835
:103B20002DE9F34792460A9A044603EB02084B68D4
:103B30000D4698453DD3086800F09AFC06460F46AE
:103B4000404600F073FC32463B4600F00FFE8046D4
:103B50005046894600F06AFCCDE9000102460B465A
:103B60004046494600F05EFFC0B14046494600F07D
:103B70008FFA124B002200F01DFB00F067FF4FEAA6
:103B80004A01814238BF01462846FFF793FF0123CF
:103B900060602370204602B0BDE8F087DDE90023B5
:103BA0003046394600F0B8FC00F072FA00F04EFFE3
:103BB0006860002323706360ECE700BF0000F03F03
:103BC0000AB100F0C2BF704708B50B68002B02DADB
:103BD0000948FFF769FF934208D95200934205D282
:103BE000002AB6BF6FF000430A600B600868BDE8AA
:103BF00008400130FFF796BE486C0008034653F8B2
:103C0000080B984201D0FFF7F4BD7047012A10B5A8
:103C100002D10A78027010BDFFF7D2FF10BD08B5BF
:103C2000521AFFF7F3FF08BD08B5521AFFF7EEFF6F
:103C300008BD70B504460E460830206056F8083BB3
:103C40000D469E420BD110223146FFF7B9FF6B683B
:103C50002046636000232B722E606B6070BD236072
:103C60008B68A360F3E7000073B5044616460D4663
:103C700001B9BAB9731B0F2B019307D9002201A90F
:103C80002046FFF7A1FF019B2060A3603246294632
:103C90002068FFF7C4FF0021019B22686360D154B4
:103CA00002B070BD0148FFF7FCFE00BFE05F0008F6
:103CB00010B5044600F10802026006C94FF0000387
:103CC0000A44FFF7D1FF204610BD0000024B1868E0
:103CD000BFF35B8F704700BF24020020244B1A689B
:103CE000D0075CBF01221A60224B1A68D1075CBF63
:103CF00001221A60204B1A68D2075CBF01221A60A9
:103D00001E4B1A68D0075CBF01221A601C4B1A6850
:103D1000D1075CBF01221A601A4B1A68D2075CBF38
:103D200001221A60184B1A68D0075CBF01221A6082
:103D3000164B1A68D1075CBF01221A60144B1A682F
:103D4000D2075CBF01221A60124B1A68D0075CBF11
:103D500001221A60104B1A68D1075CBF01221A6059
:103D60000E4B1A68D2075CBF01221A60704700BF71
:103D700054020020500200204C0200204802002083
:103D800044020020400200203C02002038020020B3
:103D900034020020300200202C02002028020020E3
:103DA000184B1A68D1075CBF01221A60164B1A68BB
:103DB000D2075CBF01221A60144B1A68D0075CBF9F
:103DC00001221A60124B1A68D1075CBF01221A60E7
:103DD000104B1A68D2075CBF01221A600E4B1A689A
:103DE000D0075CBF01221A600C4B1A68D1075CBF78
:103DF00001221A600A4B1A68D2075CBF01221A60BE
:103E0000704700BF74020020700200206C02002086
:103E10006802002064020020600200205C02002092
:103E200058020020184B1A68D1075CBF01221A60A3
:103E3000164B1A68D2075CBF01221A60144B1A682D
:103E4000D0075CBF01221A60124B1A68D1075CBF11
:103E500001221A60104B1A68D2075CBF01221A6057
:103E60000E4B1A68D0075CBF01221A600C4B1A680F
:103E7000D1075CBF01221A600A4B1A68D2075CBFE7
:103E800001221A60704700BF9402002090020020B7
:103E90008C02002088020020840200208002002082
:103EA0007C02002078020020244B1A68D0075CBFF7
:103EB00001221A60224B1A68D1075CBF01221A60E6
:103EC000204B1A68D2075CBF01221A601E4B1A6889
:103ED000D0075CBF01221A601C4B1A68D1075CBF77
:103EE00001221A601A4B1A68D2075CBF01221A60BD
:103EF000184B1A68D0075CBF01221A60164B1A686B
:103F0000D1075CBF01221A60144B1A68D2075CBF4C
:103F100001221A60124B1A68D0075CBF01221A6096
:103F2000104B1A68D1075CBF01221A600E4B1A6849
:103F3000D2075CBF01221A60704700BFC402002094
:103F4000C0020020BC020020B8020020B402002001
:103F5000B0020020AC020020A8020020A402002031
:103F6000A00200209C020020980200200000000017
:103F7000C1F30A522DE9F047A2F2FF36132E0B4689
:103F800004460D4607468846824622DC002E4FDB5B
:103F90003D4A42FA06F901EA090202431ED038A35B
:103FA000D3E9002300F006F90022002300F044FDCD
:103FB00050B1002D04DD4FF4801343FA06F6B044EF
:103FC0004FF0000A28EA0905544629462046BDE874
:103FD000F087332E06DDB6F5806F3DD019462046BA
:103FE000BDE8F0874FF0FF39A2F2134229FA02F937
:103FF00010EA090FF2D022A3D3E9002300F0DAF887
:104000000022002300F018FD0028DDD0002D09DD7E
:10401000142E2FD00123C6F1340603FA06F6371901
:1040200028BF9844454627EA090A54462946CDE761
:1040300013A3D3E9002300F0BDF80022002300F011
:10404000FBFC0028C0D0002D0FDB55EA040709D087
:104050004FF0000A0D4DB7E702460B4600F0AAF8F4
:104060000446BCE7BA463D46AEE74FF0000A4FF0C3
:104070000045A9E705F10108D4E700BFAFF30080D0
:104080009C7500883CE4377EFFFF0F000000F03F86
:10409000C1F30A522DE9F843A2F2FF36132E0B4664
:1040A00004460D46884607461DDC002E40DB3C4A90
:1040B000864642FA06F901EA0902024318D036A3FD
:1040C000D3E9002300F076F80022002300F0B4FCCE
:1040D00020B1002D42DB002728EA09053C4629468D
:1040E0002046BDE8F883332E06DDB6F5806F2FD06D
:1040F00019462046BDE8F8834FF0FF39A2F213427B
:1041000029FA02F910EA090FF2D023A3D3E9002318
:1041100000F050F80022002300F08EFC0028DDD0D3
:10412000002D21DB454627EA09073C462946D7E70B
:1041300019A3D3E9002300F03DF80022002300F08A
:104140007BFC0028CAD0002D19DB00273D46C5E7BF
:1041500002460B4600F02EF80446CAE74FF48013DF
:1041600043FA06F6B044B6E7142E10D00123C6F188
:10417000340603FA06F6371928BF9844D2E725F02B
:104180000042084B224318BF1D460027A6E705F151
:104190000108C7E7AFF300809C7500883CE4377ED8
:1041A000FFFF0F000000F0BF81F0004102E000BF00
:1041B00083F0004330B54FEA41044FEA430594EAE7
:1041C000050F08BF90EA020F1FBF54EA000C55EA22
:1041D000020C7FEA645C7FEA655C00F0E2804FEAF3
:1041E0005454D4EB5555B8BF6D420CDD2C4480EAD5
:1041F000020281EA030382EA000083EA010180EA05
:10420000020281EA0303362D88BF30BD11F0004F52
:104210004FEA01314FF4801C4CEA113102D0404288
:1042200061EB410113F0004F4FEA03334CEA1333C3
:1042300002D0524263EB430394EA050F00F0A780DB
:10424000A4F10104D5F1200E0DDB02FA0EFC22FAD6
:1042500005F2801841F1000103FA0EF2801843FACA
:1042600005F359410EE0A5F120050EF1200E012ABB
:1042700003FA0EFC28BF4CF0020C43FA05F3C018F9
:1042800051EBE37101F0004507D54FF0000EDCF172
:10429000000C7EEB00006EEB0101B1F5801F1BD31B
:1042A000B1F5001F0CD349085FEA30004FEA3C0C1F
:1042B00004F101044FEA445212F5800F80F09A8015
:1042C000BCF1004F08BF5FEA500C50F1000041EB19
:1042D000045141EA050130BD5FEA4C0C404141EB1D
:1042E000010111F4801FA4F10104E9D191F0000F44
:1042F00004BF01460020B1FA81F308BF2033A3F1C7
:104300000B03B3F120020CDA0C3208DD02F1140CBD
:10431000C2F10C0201FA0CF021FA02F10CE002F1F8
:104320001402D8BFC2F1200C01FA02F120FA0CFCF1
:10433000DCBF41EA0C019040E41AA2BF01EB04513A
:10434000294330BD6FEA04041F3C1CDA0C340EDC38
:1043500004F11404C4F1200220FA04F001FA02F37B
:1043600040EA030021FA04F345EA030130BDC4F139
:104370000C04C4F1200220FA02F001FA04F340EA2E
:104380000300294630BD21FA04F0294630BD94F0DF
:10439000000F83F4801306BF81F480110134013DC6
:1043A0004EE77FEA645C18BF7FEA655C29D094EA37
:1043B000050F08BF90EA020F05D054EA000C04BFB5
:1043C0001946104630BD91EA030F1EBF00210020A0
:1043D00030BD5FEA545C05D14000494128BF41F03F
:1043E000004130BD14F580043CBF01F5801130BDA3
:1043F00001F0004545F0FE4141F470014FF000002E
:1044000030BD7FEA645C1ABF194610467FEA655CDE
:104410001CBF0B46024650EA013406BF52EA033580
:1044200091EA030F41F4002130BD00BF90F0000F6E
:1044300004BF0021704730B54FF4806404F13204AA
:104440004FF000054FF0000150E700BF90F0000F63
:1044500004BF0021704730B54FF4806404F132048A
:1044600010F0004548BF40424FF000013EE700BF5A
:1044700042004FEAE2014FEA31014FEA02701FBFEA
:1044800012F07F4393F07F4F81F06051704792F0BC
:10449000000F14BF93F07F4F704730B54FF4607436
:1044A00001F0004521F0004120E700BF50EA010281
:1044B00008BF704730B54FF000050AE050EA01022E
:1044C00008BF704730B511F0004502D5404261EB9E
:1044D00041014FF4806404F132045FEA915C3FF4DF
:1044E000DCAE4FF003025FEADC0C18BF03325FEA78
:1044F000DC0C18BF033202EBDC02C2F1200300FA2D
:1045000003FC20FA02F001FA03FE40EA0E0021FA51
:1045100002F11444C1E600BF70B54FF0FF0C4CF43B
:10452000E06C1CEA11541DBF1CEA135594EA0C0FF1
:1045300095EA0C0F00F0DEF82C4481EA030621EA2C
:104540004C5123EA4C5350EA013518BF52EA033567
:1045500041F4801143F4801338D0A0FB02CE4FF019
:104560000005E1FB02E506F00042E0FB03E54FF049
:104570000006E1FB03569CF0000F18BF4EF0010E41
:10458000A4F1FF04B6F5007F64F5407404D25FEA3D
:104590004E0E6D4146EB060642EAC62141EA5551F0
:1045A0004FEAC52040EA5E504FEACE2EB4F1FD0C32
:1045B00088BFBCF5E06F1ED8BEF1004F08BF5FEAB0
:1045C000500E50F1000041EB045170BD06F0004662
:1045D00046EA010140EA020081EA0301B4EB5C040F
:1045E000C2BFD4EB0C0541EA045170BD41F4801107
:1045F0004FF0000E013C00F3AB8014F1360FDEBF2C
:10460000002001F0004170BDC4F10004203C35DA07
:104610000C341BDC04F11404C4F1200500FA05F38A
:1046200020FA04F001FA05F240EA020001F000422B
:1046300021F0004110EBD37021FA04F642EB0601A1
:104640005EEA430E08BF20EAD37070BDC4F10C04CB
:10465000C4F1200500FA04F320FA05F001FA04F28F
:1046600040EA020001F0004110EBD37041F100017B
:104670005EEA430E08BF20EAD37070BDC4F1200586
:1046800000FA05F24EEA020E20FA04F301FA05F2EE
:1046900043EA020321FA04F001F0004121FA04F296
:1046A00020EA020000EBD3705EEA430E08BF20EA66
:1046B000D37070BD94F0000F0FD101F000464000A0
:1046C00041EB010111F4801F08BF013CF7D041EA22
:1046D000060195F0000F18BF704703F00046520026
:1046E00043EB030313F4801F08BF013DF7D043EAF7
:1046F0000603704794EA0C0F0CEA135518BF95EAAD
:104700000C0F0CD050EA410618BF52EA4306D1D133
:1047100081EA030101F000414FF0000070BD50EA52
:10472000410606BF1046194652EA430619D094EADC
:104730000C0F02D150EA013613D195EA0C0F05D1C6
:1047400052EA03361CBF104619460AD181EA03011A
:1047500001F0004141F0FE4141F470014FF00000D2
:1047600070BD41F0FE4141F4780170BD70B54FF06D
:10477000FF0C4CF4E06C1CEA11541DBF1CEA1355ED
:1047800094EA0C0F95EA0C0F00F0A7F8A4EB0504CF
:1047900081EA030E52EA03354FEA013100F08880C6
:1047A0004FEA03334FF0805545EA131343EA12638F
:1047B0004FEA022245EA111545EA10654FEA002644
:1047C0000EF000419D4208BF964244F1FD0404F5FD
:1047D000407402D25B084FEA3202B61A65EB030559
:1047E0005B084FEA32024FF480104FF4002CB6EB16
:1047F000020E75EB030E22BFB61A754640EA0C0096
:104800005B084FEA3202B6EB020E75EB030E22BFD5
:10481000B61A754640EA5C005B084FEA3202B6EB16
:10482000020E75EB030E22BFB61A754640EA9C00D5
:104830005B084FEA3202B6EB020E75EB030E22BFA5
:10484000B61A754640EADC0055EA060E18D04FEA63
:10485000051545EA16754FEA06164FEAC30343EA03
:1048600052734FEAC2025FEA1C1CC0D111F4801FD0
:104870000BD141EA00014FF000004FF0004CB6E7C9
:1048800011F4801F04BF01430020B4F1FD0C88BF68
:10489000BCF5E06F3FF6AFAEB5EB030C04BFB6EB73
:1048A000020C5FEA500C50F1000041EB045170BD66
:1048B0000EF0004E4EEA113114EB5C04C2BFD4EB93
:1048C0000C0541EA045170BD41F480114FF0000E17
:1048D000013C90E645EA060E8DE60CEA135594EA93
:1048E0000C0F08BF95EA0C0F3FF43BAF94EA0C0F96
:1048F0000AD150EA01347FF434AF95EA0C0F7FF40B
:1049000025AF104619462CE795EA0C0F06D152EA5E
:1049100003353FF4FDAE1046194622E750EA410642
:1049200018BF52EA43067FF4C5AE50EA41047FF453
:104930000DAF52EA43057FF4EBAE12E74FF0FF3CB8
:1049400006E000BF4FF0010C02E000BF4FF0010C89
:104950004DF804CD4FEA410C7FEA6C5C4FEA430C02
:1049600018BF7FEA6C5C1BD001B050EA410C0CBF51
:1049700052EA430C91EA030F02BF90EA020F0020B3
:10498000704710F1000F91EA030F58BF994208BF1A
:1049900090422CBFD8176FEAE37040F001007047D7
:1049A0004FEA410C7FEA6C5C02D150EA013C07D12E
:1049B0004FEA430C7FEA6C5CD6D152EA033CD3D079
:1049C0005DF8040B704700BF8446104662468C4673
:1049D0001946634600E000BF01B5FFF7B7FF0028A6
:1049E00048BF10F1000F01BD4DF808EDFFF7F4FFCF
:1049F0000CBF012000205DF808FB00BF4DF808ED5A
:104A0000FFF7EAFF34BF012000205DF808FB00BF7C
:104A10004DF808EDFFF7E0FF94BF012000205DF89E
:104A200008FB00BF4DF808EDFFF7CEFF94BF012053
:104A300000205DF808FB00BF4DF808EDFFF7C4FF4C
:104A400034BF012000205DF808FB00BF4A0011D2EE
:104A500012F5001211D20DD56FF47873B3EB6252D8
:104A60000ED44FEAC12343F0004343EA505323FAE4
:104A700002F070474FF00000704750EA013002D159
:104A80004FF0FF3070474FF0000070470A220021BE
:104A900000F0E6BA0A22002100F0E2BA014B1868E1
:104AA000704700BF30000020D0F8EC0070470000D5
:104AB000044B054A1B681B6A002B08BF1346D3F83A
:104AC000EC0070473000002094000020024B0146AB
:104AD000186800F0B3B800BF30000020024B014658
:104AE000186800F05FB800BF3000002082B001B944
:104AF00001A942B14BB113780B601278101C18BF9A
:104B0000012002B070471046FBE76FF00100F8E7A4
:104B100010B5C9B202449042034601D1002010BD35
:104B20001C7801308C42F6D1184610BD10B5013901
:104B30000244904201D1002010BD10F8013B11F851
:104B4000014FA342F5D0181B10BD10B5431E0A44F7
:104B5000914200D110BD11F8014B03F8014FF7E766
:104B6000884210B501EB020303D8421E99420CD1D2
:104B700010BD9842F9D28118D21AD34200D110BD8B
:104B800013F8014D01F8014DF7E711F8014B02F858
:104B9000014FEBE703460244934200D1704703F80C
:104BA000011BF9E738B50546002943D051F8043C0C
:104BB0000C1F002BB8BFE41800F005FB1E4A136859
:104BC000104633B9636014602846BDE8384000F0F1
:104BD000FBBAA3420BD921686218934201BF1A683D
:104BE0005B685218226063600460EDE713465A6800
:104BF0000AB1A242FAD919685818A0420BD120680C
:104C00000144581882421960DED11068526801448C
:104C100019605A60D8E702D90C232B60D4E72068CA
:104C200021188A4201BF1168526809182160626028
:104C30005C60C9E738BD00BFC802002070B5CD1C5C
:104C400025F0030508350C2D38BF0C25002D064630
:104C500001DBA94203D90C233360002070BD00F0B2
:104C6000B2FA234A1468214691B9224C23681BB931
:104C7000304600F041F820602946304600F03CF80C
:104C8000431C26D10C233046336000F09DFAE4E744
:104C90000B685B1B1AD40B2B0FD90B60CC18CD50B3
:104CA000304600F091FA04F10B00231D20F00700BC
:104CB000C31A1BD05A42E25070BD8C420BBF6368CE
:104CC0004B681360636018BF0C46E9E70C464968FF
:104CD000CAE7C41C24F00304A04205D0211A3046C0
:104CE00000F00AF80130CDD02560D9E770BD00BFD3
:104CF000C8020020CC02002038B50023054C054630
:104D000008462360FBF796FF431C02D1236803B1DA
:104D10002B6038BDD00200200EB44FF4027100B5F4
:104D20009CB0ADF814106FF00041049107914FF65C
:104D3000FF711DAB02900690084853F8042BADF8A4
:104D40001610006802A9019300F09AFA0022029B53
:104D50001A701CB05DF804EB03B0704730000020FF
:104D60000EB44FF4017230B59CB01FAC54F8045B24
:104D7000ADF814200290069000F036F80B4B03902B
:104D80000B9300230F9314934FF6FF73079008487B
:104D9000ADF816302A46234602A90068019400F0B7
:104DA000BDFB1CB0BDE8304003B07047B54D0008F6
:104DB0003000002000207047C9B2034610F8012BD4
:104DC0001AB19142F9D11846704700290CBF184614
:104DD0000020704710F8012B11F8013B012A28BF71
:104DE0009A42F7D0D01A7047034613F8012B002AD5
:104DF000FBD1181A0138704710B56AB1013984180F
:104E000010F8013B11F8012F934203D1A04201D0C9
:104E1000002BF5D1981A10BD104610BD70B5044690
:104E200002B970BD234611F8015B561E03F8015B01
:104E30001DB91444A34203D170BD1C463246EFE7AE
:104E400003F8015BF6E7034610B501448B4202D03C
:104E50001A785C1C0AB9181A10BD2346F6E7F0B59B
:104E6000037833B1034618465E1C1B7833B91846E5
:104E7000F0BD0B78002B18BF0020F0BD4D1E441E66
:104E800015F8012F002AF3D014F8017F334697421A
:104E9000F6D0E8E7134B2DE9F0411D680646AC6DEE
:104EA0000F46B4B95020FFF711FEA86504604460B6
:104EB0008460C4600461446184618462C462046388
:104EC00044638463C463046444648464C464047792
:104ED0004462AA6D39463046BDE8F041012300F036
:104EE00003B800BF30000020F0B518B9106808B949
:104EF000F0BD204604460F4614F8015B17F8016B1D
:104F00001EB965B915602846F0BDB542F6D1002B33
:104F1000EFD114600370F0BD1C460CE015B90E46CD
:104F200014F8013B16F8015BAB42F7D1002BF3D02C
:104F3000002304F8013C1460F0BD2DE9F84F8046D1
:104F4000894692461F468B465D460A9815F8014BE6
:104F5000FFF7AAFD2044467816F008060BD12D2C49
:104F60000BD101262C780BF1020567B1102F14D15B
:104F7000302C0AD011E0AB46E6E72B2C04BF2C788E
:104F80000BF10205F1E7302C27D12B7803F0DF037A
:104F9000582B4BD110276C780235002E0CBF6FF0C8
:104FA00000414FF000410022B1FBF7FE104607FB25
:104FB0001E1CA4F13003092B11D81C46A7421DDD8D
:104FC000531C07D0864516D301D1A44513DB01221B
:104FD00000FB074015F8014BEBE70A27DDE7A4F1DA
:104FE0004103192B01D8373CE8E7A4F16103192BE1
:104FF00004D8573CE2E74FF0FF32EBE7531C08D1EF
:1050000022230846C8F80030BAF1000F07D1BDE8E6
:10501000F88F06B14042BAF1000F0CD022B1013D29
:10502000CAF80050BDE8F88F4D46F9E73024002F4C
:10503000B3D10827B1E7BDE8F88F000037B5064CBB
:10504000064D2468246A002C08BF2C460094FFF704
:1050500074FF03B030BD00BF30000020940000207A
:10506000084B37B51C68084D236A002B08BF2B4638
:10507000009313460A4601462046FFF75EFF03B041
:1050800030BD00BF30000020940000202DE9F04723
:105090008046894692461E460F463D46089815F8BA
:1050A000014BFFF701FD2044437813F008030AD1B8
:1050B0002D2C0AD101232C78BD1C5EB1102E13D1EA
:1050C000302C09D010E02F46E7E72B2C04BF2C78BA
:1050D000BD1CF2E7302C25D12A7802F0DF02582AD5
:1050E0004AD110266C7802354FF0FF31B1FBF6F152
:1050F000002706FB01FE38466FEA0E0EA4F13002CF
:10510000092A11D81446A6421DDD002F18DB814262
:1051100016D301D1A64513DB012700FB064015F885
:10512000014BEBE70A26DFE7A4F14102192A01D877
:10513000373CE8E7A4F16102192A04D8573CE2E7BA
:105140004FF0FF37EBE7002F09DA22234FF0FF3053
:10515000C8F80030BAF1000F07D1BDE8F08703B1FD
:105160004042BAF1000F0CD027B1013DCAF80050FF
:10517000BDE8F0874D46F9E73024002EB4D108266B
:10518000B2E7BDE8F087000037B5064C064D24684D
:10519000246A002C08BF2C460094FFF777FF03B069
:1051A00030BD00BF300000209400002049B1FF2A2C
:1051B0008BBF8A230A700360012088BF4FF0FF3045
:1051C000704708467047704770472DE9F0478E6872
:1051D00082469E420C469146984635D88A8912F4FA
:1051E000906F31D00223256809696F1A656905EB54
:1051F000450595FBF3F508F101033B449D4238BF9B
:105200001D46530531D52946FFF718FD064650B90E
:105210000C23CAF80030A3894FF0FF3043F040035D
:10522000A381BDE8F0873A462169FFF78EFCA38988
:1052300023F4906343F08003A38126613E442660FB
:1052400046466561ED1BA560464528BF4646494672
:1052500032462068FFF784FCA36800209B1BA360F4
:1052600023681E442660BDE8F0872A4600F004FE4D
:1052700006460028E1D121695046FFF793FCC7E7B5
:105280002DE9F04F9DB003938B8980461C060D4697
:1052900016460FD50B696BB94021FFF7CFFC28608C
:1052A000286128B90C23C8F800304FF0FF30C4E063
:1052B00040236B610023099320238DF8293030238C
:1052C0004FF0010B8DF82A3037463C4614F8013B6D
:1052D000002B3CD1B7EB060A0BD053463246294689
:1052E0004046FFF772FF013000F0A280099B534453
:1052F00009933B78002B00F09B8000234FF0FF3296
:1053000004930793059206938DF853301A93052260
:1053100021785048FFF7FCFB671C049BD8B9D906DD
:1053200044BF20228DF853201A0744BF2B228DF84A
:10533000532022782A2A16D000210A20079A2746CD
:105340003B780134303B092B50D9C9B111E0252BF2
:10535000C0D02746B9E73F4A3C46801A0BFA00F016
:1053600018430490D3E7039A111D12680391002A91
:1053700001DB079204E0524243F0020307920493D8
:105380003B782E2B0DD17B78791C2A2B32D1039BB5
:1053900002371A1D1B680392002BB8BF4FF0FF3372
:1053A00005932D4C032239782046FFF7B1FB38B125
:1053B0004023001B03FA00F0049B013703430493CE
:1053C0003978062225487E1C8DF82810FFF7A0FBAF
:1053D000002835D0224BFBB9039B073323F007038A
:1053E00008330393099B4B4409936DE700FB02329A
:1053F0000121A4E700230A24184605930F463A78B2
:105400000131303A092A03D9002BCAD00590C8E7E8
:1054100004FB00200123F1E703AB00932A46114B64
:1054200004A94046AFF30080B0F1FF3F8146D9D1D7
:10543000AB895B063FF539AF09981DB0BDE8F08F29
:1054400003AB00932A46074B04A9404600F032FA0A
:10545000EAE700BFCE6D0008D46D0008D86D0008E3
:1054600000000000CB51000838B54B1C144603D196
:105470004FF0FF35284638BD9389CDB223F0200385
:105480009381536B52688BB1A36B9A4208DA2368FD
:105490005A1E226003F8015C636801336360E9E728
:1054A000214600F0B0FC0028F1D0E1E72169236833
:1054B00051B1994208D213F8011C8D4204D1013B2D
:1054C000013223606260D5E7E36304F14403636360
:1054D0000323A3632346226403F8465F236001236A
:1054E000DCE710B50C46496B69B104F144039942FD
:1054F00001D0FFF757FB0020236C6063636013B19A
:10550000E36B236010BD23694FF0FF30236000235D
:105510006360A38943F02003A38110BD2DE9F04F00
:10552000ADF5257D0193002306460C4692460A27D9
:10553000469347939F4B0DF10C08A2939E4BDFF8C7
:105540007C92CDF82081A3939AF80030002B00F0D4
:105550002F81FFF7ADFA9AF800B05844437813F062
:10556000080343D1BBF1250F0AF1010540F09980F2
:10557000459343939AF801302A2B03D110230AF163
:10558000020543932978AA46A1F13002092A05F1C0
:10559000010541D903228948FFF7BAFA38B1A0EBD7
:1055A00009030120AA469840439B184343909AF868
:1055B00000300AF10105672B4AD8652B80F0B780CF
:1055C000472B2FD8452B80F0B280002B00F0828033
:1055D000252B66D003234497499345E0479901332F
:1055E0000131479161682360013961606368002B74
:1055F0000BDDFFF75DFA23681978084441780D0741
:10560000ECD40AF10105AA469EE7A39B2146304649
:1056100098470028EDD0F4E7459B07FB0313303B88
:105620004593AFE75B2B61D00CD8582BD2D1439A6E
:1056300042F400724392102244926F2BB4BF0323B2
:10564000042310E0632B5CD0642BC3D14497F4E7B0
:10565000702B42D01DD86E2B59D043D8692BB9D1AD
:1056600000234493032349936368002B61DD439B2C
:1056700059066FD5499B022B7CDC01AB224643A91E
:10568000304600F037FA012800F092800228BAD1A3
:105690001DE0752BDAD0782BC9D0732B9AD1022359
:1056A000E1E76368002B0CDD23681A7893457FD10E
:1056B000013362682360479B013A0133626047937C
:1056C000A1E7A39B2146304698470028ECD0469896
:1056D000002863D14FF0FF3066E0439A42F0200289
:1056E0004392A4E7082344930423BCE72946404699
:1056F00000F05AFB439B054643F0400343930123CC
:10570000B1E7439B43F0400343930023ABE7439A45
:10571000D0063FF578AF12F0010F019A479B02F1D6
:1057200004010191126814BF138013606BE7052315
:1057300099E7A39B214630469847002897D0C6E7B3
:10574000479A013247926268013A002A62600ADD94
:1057500001332360FFF7ACF923681A7810444278CC
:105760001207EDD486E7A39B2146304698470028D0
:10577000F0D0ACE7042B06DC01AB224643A930464F
:1057800000F01CFA7FE70E4B002B3FF43CAF01AB5F
:10579000224643A93046AFF3008074E7A38913F093
:1057A000400F18BF4FF0FF300DF5257DBDE8F08F9D
:1057B0004698F9E769540008E3540008D46D0008DE
:1057C000000000002DE9F04791461F468A680B69EA
:1057D00006469342B8BF1346C9F8003091F84320FB
:1057E0000C46DDF8208012B10133C9F8003023687F
:1057F000990642BFD9F800300233C9F80030256855
:1058000015F0060507D104F1190AE368D9F800205C
:105810009B1A9D422ADB94F843302268003318BF5C
:10582000012392062FD404F1430239463046C04783
:10583000013022D02368E56803F00603042B18BF6B
:105840000025D9F800204FF0000908BFAD1AA36861
:10585000226908BF25EAE5759342C4BF9B1AED187B
:105860001A344D451BD10020BDE8F0870123524674
:1058700039463046C047013003D14FF0FF30BDE814
:10588000F0870135C1E73020E11881F843005A1C48
:1058900094F845102244023382F84310C3E70123F1
:1058A000224639463046C0470130E6D009F10109A9
:1058B000D7E700002DE9F04317460A7E85B06E2A2F
:1058C000984606460C460C9B01F1430E00F0BC8046
:1058D0001AD8632A2ED00AD8002A00F0C880582A85
:1058E00000F08A8004F1420584F842202AE0642A0C
:1058F00001D0692AF6D121681A6811F0800F23D0EF
:10590000111D1960136827E0732A00F0B48008D8CD
:105910006F2A2AD0702AE5D10A6842F020020A6074
:1059200003E0752A21D0782ADCD178226F4984F8E7
:10593000452064E01A6801F14205111D19601368E1
:1059400084F842300123A3E011F0400F02F104017A
:105950001960D7D0B2F90030002B03DA2D225B4258
:1059600084F8432062490A2217E02068196810F081
:10597000800F03D0081D18600B6806E010F0400F80
:1059800001F104001860F7D00B886F2A14BF0A22B7
:1059900008225749002084F843006568002DA5605F
:1059A000C0F29C80206820F004002060002B3FD1D2
:1059B000002D40F095807546082A0BD12368DA0740
:1059C00008D5236962689A42DEBF302305F8013C9E
:1059D00005F1FF35AEEB05032361CDF800803B46B2
:1059E00003AA21463046FFF7EDFE013055D14FF0B6
:1059F000FF3005B0BDE8F08381F845203C492268BE
:105A0000186812F0800F00F104051D6001D00368D2
:105A100002E05506FBD50388D00744BF42F02002C0
:105A200022601BB9226822F0200222601022B1E716
:105A30007546B3FBF2F002FB1033CB5C05F8013D79
:105A400003460028F5D1B7E708681A6810F0800F00
:105A5000496904D0101D18601368196007E010F040
:105A6000400F02F1040018601368F6D0198000237B
:105A700075462361B1E71A68111D19601568002188
:105A800062682846FFF744F808B1401B606063680D
:105A90002361002384F843309FE723692A4639466F
:105AA0003046C0470130A2D023689B0707D50025A8
:105AB00004F11909E368039A9B1A9D4205DBE0682B
:105AC000039B9842B8BF184693E701234A463946DC
:105AD0003046C04701308AD00135EBE7002BA7D113
