:020000040800F2
:1000000000000120A5020008A9020008AB020008B8
:10001000E9020008EB0200080103000800000000EC
:1000200000000000000000000000000017030008AE
:1000300019030008000000001B0300084D320008EF
:1000400031030008310300083103000831030008C0
:1000500031030008310300083103000831030008B0
:1000600031030008310300083103000831030008A0
:10007000310300083103000815220008310300088D
:100080003103000831030008310300083103000880
:100090003103000831030008310300083103000870
:1000A0003103000831030008310300083103000860
:1000B000AD1A0008310300083103000831030008BD
:1000C0003103000831030008310300083103000840
:1000D00031030008812100080528000831030008C9
:1000E0003103000831030008310300083103000820
:1000F0003103000831030008310300083103000810
:1001000031030008310300083103000831030008FF
:1001100031030008310300083103000831030008EF
:1001200031030008310300083103000831030008DF
:1001300000000000000000000000000000000000BF
:1001400000000000000000000000000000000000AF
:10015000000000000000000000000000000000009F
:10016000000000000000000000000000000000008F
:10017000000000000000000000000000000000007F
:10018000000000000000000000000000000000006F
:10019000000000000000000000000000000000005F
:1001A000000000000000000000000000000000004F
:1001B000000000000000000000000000000000003F
:1001C000000000000000000000000000000000002F
:1001D000000000000000000000000000000000001F
:1001E0005FF8E0F107B500F03FFD234A234B2449B7
:1001F0008B4204D252F8041F43F8041BF7E7214B4B
:10020000214A934203D2002243F8042BF8E700F07E
:1002100037FD684601A900F01FFD1C4B1C4C1E4613
:10022000E41AA4100025A54204DA56F825309847B0
:100230000135F8E7174B184C1E46E41AA4100025A8
:10024000A54204DA56F8253098470135F8E79DE8CD
:10025000030003F088FA114B06461D46104CE41AC1
:10026000A410002C04DD013C55F824309847F8E731
:10027000304600F0C9FC00BFF46E0008000000200A
:1002800098000020980000203C0100205C0300083A
:100290005C0300085C0300086C0300086C030008A2
:1002A0006C0300081E480047FEE71EF0040F0CBF59
:1002B000EFF30880EFF3098071461A4A104710B532
:1002C000084C236B9B070BD5E36A002B08DA4BF62F
:1002D000AB6100F0E9FC18B14FF00043E36210BDE0
:1002E000FEE700BF00ED00E0FEE71EF0040F0CBFCC
:1002F000EFF30880EFF3098071460B4A1047FEE7E1
:100300001EF0040F0CBFEFF30880EFF30980714675
:10031000064A1047FEE7FEE7FEE7FEE770470000EB
:10032000E5010008BF020008FF02000815030008ED
:02033000FEE7E6
:10033400F86E00080000002098000020F86E000805
:100344000000000000000000980000203C01002094
:100354000000000000000000691B000809330008C9
:08036400ED3D0008B13E000868
:1003700040F0BF60024B40F40030D860704700BFCF
:1003800000ED00E0C27810B503780AB3164A03F115
:100390006043D4684278E443C4F30224C4F1040106
:1003A00002FA01F10F22E240847803F56143224012
:1003B0000A431201D2B283F80023037801225909BB
:1003C00003F01F0302FA03F3084A42F8213010BD7C
:1003D0005A09012103F01F03994002F12003034A47
:1003E00042F8231010BD00BF00ED00E000E100E086
:1003F000044B04281A680CBF42F0040222F00402E5
:100400001A60704710E000E04FF6FE730268134078
:1004100003600023036043608360C360284B9842FD
:1004200001D1284A27E0284B984201D1254A2AE0E9
:10043000264B984201D1234A2DE0254B984201D109
:10044000204A30E0234B984201D11E4A33E0224B30
:10045000984204D11B4A536843F470032EE01F4BAB
:10046000984204D1174A536843F0706326E01C4B4E
:10047000984204D11B4A536843F00F031EE01A4B05
:10048000984204D1174A536843F0F00316E0174B23
:10049000984204D1134A536843F470630EE0144B3E
:1004A000984204D10F4A536843F4704306E0114B5D
:1004B000984204D10B4A536843F470235360704749
:1004C00008000240000002401C00024030000240D0
:1004D00044000240580002406C000240800002408C
:1004E00008040240000402401C04024030040240A0
:1004F00044040240580402408A6810B50C6A03683C
:1005000014430A6923F4FF4314434A6923F0700338
:1005100014438A691443CA6914434A6A14438A6AB1
:10052000224313430360CB6843600B6883604B68CE
:10053000C36010BD0023036043608360C360036138
:1005400043618361C361036243628362704719B18F
:10055000036843F0010303E04FF6FE7302681340A3
:100560000360704703680AB1194301E023EA0101FF
:100570000160704741607047406880B2704700007A
:10058000C3004CBF034B044B1B68034214BF012044
:10059000002070470004024000000240C3004CBF2E
:1005A000014B024B586070470004024000000240BB
:1005B000CA78F0B5D40648BF8C780D8802F00F03D6
:1005C00048BF234315F0FF0F1DD00168002401260A
:1005D000A64006EA0507B74211D14FEA840E0F265E
:1005E00006FA0EF621EA0601282A03FA0EF641EA77
:1005F000060101D1476102E0482A08BF07610134C2
:10060000082CE4D10160FF2D1FD94168002404F1BA
:1006100008070126BE4006EA0507B74211D14FEA96
:10062000840E0F2606FA0EF621EA0601282A03FA9E
:100630000EF641EA060101D1476102E0482A08BFEF
:1006400007610134082CE2D14160F0BD4FF6FF7321
:100650000380022383700423C370704701617047D5
:1006600041617047014B1860704700BF0030004087
:10067000014B5860704700BF00300040014B98604C
:10068000704700BF003000404AF6AA22014B1A60B2
:10069000704700BF003000404CF6CC42014B1A605E
:1006A000704700BF00300040014B1860704700BF2A
:1006B000800442421C4A10B5536803F00C03042B1B
:1006C00001D0082B01D0194B0EE053685168C3F3D9
:1006D0008343CC0303F1020302D55168890301D59A
:1006E000134900E011494B4303605368114CC3F3B5
:1006F0000313E15C0368CB4043605168C1F30221FE
:10070000615C23FA01F181605168C1F3C221615C2F
:10071000CB40C36052680849C2F381328A5CB3FBA4
:10072000F2F3036110BD00BF0010024000127A0016
:1007300000093D000400002000000020044B5A691D
:1007400009B1104301E022EA00005861704700BF80
:1007500000100240044B9A6909B1104301E022EAFB
:1007600000009861704700BF00100240044BDA6936
:1007700009B1104301E022EA0000D861704700BFD0
:1007800000100240044BDA6809B1104301E022EA8C
:100790000000D860704700BF00100240044B1A6987
:1007A00009B1104301E022EA00001861704700BF60
:1007B000001002404209012A074B01D11B6803E0E7
:1007C000022A0CBF1B6A5B6A00F01F0023FA00F0CC
:1007D00000F00100704700BF0010024008B55A4BFE
:1007E000984207D14FF400600121FFF7CBFF4FF48F
:1007F0000060A2E0B0F1804F05D101200146FFF773
:10080000CDFF012007E0514B984209D10220012180
:10081000FFF7C4FF02200021BDE80840FFF7BEBF7C
:100820004B4B984205D104200121FFF7B7FF04206C
:10083000F1E7484B984205D108200121FFF7AEFFB0
:100840000820E8E7444B984205D110200121FFF72A
:10085000A5FF1020DFE7414B984205D12020012160
:10086000FFF79CFF2020D6E73D4B984207D14FF47D
:1008700000500121FFF786FF4FF400505DE0394B37
:10088000984207D14FF400200121FFF77BFF4FF47E
:10089000002052E0344B984207D14FF480100121E0
:1008A000FFF770FF4FF4801047E0304B984207D1BC
:1008B0004FF400100121FFF765FF4FF400103CE0FA
:1008C0002B4B984205D140200121FFF767FF4020C4
:1008D000A1E7284B984205D180200121FFF75EFF58
:1008E000802098E7244B984207D14FF48070012173
:1008F000FFF754FF4FF480708DE7204B984207D1EB
:100900004FF480300121FFF73DFF4FF4803014E0B9
:100910001B4B984207D14FF400300121FFF732FF03
:100920004FF4003009E0174B98420BD14FF4802070
:100930000121FFF727FF4FF480200021BDE8084088
:10094000FFF720BF08BD00BF002C0140000400409D
:1009500000080040000C004000100040001400405F
:1009600000340140004C014000500140005401405F
:1009700000180040001C00400020004000400140E2
:100980000044014000480140224A038890429BB243
:1009900012D002F5006290420ED0B0F1804F0BD021
:1009A000A2F59832904207D002F58062904203D0BF
:1009B00002F58062904203D14A8823F0700313430A
:1009C000154A904208D002F5806290421FBF23F47E
:1009D0004073CA889BB2134303808B8883850B883E
:1009E00003850C4B98420FD003F5006398420BD05F
:1009F00003F54063984207D003F58063984203D023
:100A000003F58063984201D10B7A03860123838228
:100A1000704700BF002C0140001000404FF6FF73EC
:100A2000838000230380C380438003727047038860
:100A300019B19BB243F0010303E023F001031B044F
:100A40001B0C0380704783899BB20AB1194301E0F4
:100A500023EA010181817047038819B19BB243F0F9
:100A6000800303E023F080031B041B0C038070470A
:100A700081857047C94389B201827047038A8289A0
:100A800011EA030092B203D0114214BF01200020EA
:100A90007047C94389B201827047000070B50E46A5
:100AA0000446038ACA889BB223F44053134303824B
:100AB00082890989B38892B20B43718922F4B052BA
:100AC0000B4322F00C0213439BB28381838AB289C9
:100AD0009BB223F4407386B01343838201A8FFF7CF
:100AE000E9FD039B049D174A3168944218BF1D46D7
:100AF000A38919226A431BB2002BB4BF4D008D009D
:100B0000B2FBF5F56426B5FBF6F00001010906FB22
:100B10001153A28912B2002AADBF1A01D900323195
:100B20003232B5BFB1FBF6F2B2FBF6F302F00702C8
:100B300003F00F03B4BF1043184380B2208106B006
:100B400070BD00BF003801404FF4165303600C2203
:100B500000238380C380038142818381704783891E
:100B600019B19BB243F4005303E023F400531B0478
:100B70001B0C8381704710B5C1F34214012301F0AF
:100B80001F01012C03FA01F301D10C3003E0022C08
:100B90000CBF1030143012B10268134302E0026837
:100BA00022EA0303036010BD838A9BB20AB1194392
:100BB00001E023EA0101818270478088C0F30800C8
:100BC0007047C94389B201807047012310B5C1F352
:100BD000421401F01F029C4203FA02F201D1838900
:100BE00003E0022C0CBF038A838A9BB21340028865
:100BF00092B23BB1090A01238B40134214BF01207A
:100C0000002010BD184610BD08B500F03BF808B52F
:100C10000120FFF7F9FF000008B50C4B1A680AB96C
:100C20000B4A1A601A68C31C23F0030309491344D2
:100C30008B4206D903F02EFF0C2303604FF0FF30E8
:100C400008BD024910460B6008BD00BF9800002097
:100C50003C01002000FC002001230360014B0B60DD
:100C6000704700BF1400002008B500F02BF8024BBD
:100C7000024A9A6008BD00BF00ED00E000000008D5
:100C800000F0B0B8BFF34F8F0549064BCA6802F4B5
:100C9000E0621343CB60BFF34F8F00BFFDE700BF9F
:100CA00000ED00E00400FA0583691A888A4207D142
:100CB0000268033A012A03D8023383610120704796
:100CC000002070473F4B07B519683F4A914208D151
:100CD0003E4A1A6000231B6883F308883C4B1B685C
:100CE00098473C4B1A6842F001021A6059683A4A28
:100CF0000A405A601A6822F0847222F480321A6024
:100D00001A6822F480221A605A6822F4FE025A609D
:100D10004FF41F029A600022009201921A6842F476
:100D200080321A601A6802F400320192009A01328D
:100D30000092019A1AB9009AB2F5A06FF2D11A681E
:100D400012F4003218BF01220192019A012A06D042
:100D5000224B4FF000629A6003B05DF804FB204A1A
:100D6000116841F010011160116821F00301116058
:100D7000116841F0020111605A685A605A685A605D
:100D80005A6842F480625A605A6822F47C125A60AF
:100D90005A6842F4E8125A601A6842F080721A6087
:100DA00019680C4A8901FBD5516821F00301516093
:100DB000516841F0020151605A6802F00C02082AA1
:100DC000FAD1C5E700FF0020EFBEADDEEDFEFECAA2
:100DD00004F0FF1F001002400000FFF800ED00E0EB
:100DE00000200240114A124B516801F00C01042905
:100DF00001D0082901D00F490EE051685068C1F3B5
:100E00008341C00301F1020102D55068800301D57E
:100E1000094800E007484143196052680749C2F396
:100E20000312895C1A68CA401A60704700100240B9
:100E30002C00002000127A0000093D001C00002058
:100E400070B505462C7B8068012C10D002D3022C93
:100E500021D03BE0826AC3680124B3FBF2F38268CD
:100E60009A4233D82B6103682C731B691EE0C1685A
:100E7000826A8668B1FBF2F39E4213D82E69B342B0
:100E800024D902FB13130BB390F82630012B1DD18C
:100E900002232B7310E0826AC368B3FBF2F382680B
:100EA0009A4205D900232B7303685B6998470DE0CC
:100EB00090F82630012B09D103680521DB6998479A
:100EC000A86803681B699847002070BD012070BDA9
:100ED000002303730361806803685B69184700009F
:100EE00010B50446024B036000F030F8204610BDF8
:100EF000F85D000810B50446FFF7F2FF204602F047
:100F00003FFC204610BD7047806808B5C168836A01
:100F1000B1FBF3F203FB121313B90368DB689847C4
:100F2000012008BD10B50446024B036000F00EF826
:100F3000204610BD405E000810B50446FFF7F2FFE2
:100F4000204602F01DFC204610BD7047704710B5CA
:100F5000044602F015FC204610BD000010B5024CFE
:100F600041600460826010BD905E0008883000F02F
:100F7000DABD90F8CC3013B9883000F0CDBD7047A1
:100F8000883000F0C9BD883000F0D4BD0068024A46
:100F900050F80C1C02F00CBC07690FC738B50446AA
:100FA0000D4600F0E1FA2046064B294640F86C3B1E
:100FB00001F068FC04F18800294600F0AFFC2046EF
:100FC00038BD00BFA85E00082DE9F043044685B097
:100FD0001F46012300930D46E368904602A804F1E2
:100FE0001001626802F088FE9DF80830002B46D0A0
:100FF000039D012D04D12646002346F8183F0EE03C
:10100000B5F1804F01D302F0C9FE4FEA8509484689
:1010100002F0B8FB00214A46064603F095FD002089
:10102000A368A060F3B1D968D3F800E0B1FBF5F292
:1010300005FB121256F8221059B9A1681960214611
:1010400041F8083F46F82210196841B146F82030AF
:1010500005E00968196056F8222013600246104620
:101060007346DFE7234653F8180B984201D002F08D
:1010700087FBB8FBF5F3656005FB138526602368E5
:10108000C7F80C8053F82520AE002AB112683A60E8
:1010900053F825301F600FE0A2683A60A7603AB1AC
:1010A000D0686268B0FBF2F102FB110243F82270D3
:1010B000234653F8082B93513846E3680133E36025
:1010C00005B0BDE8F0832DE9F8439946036807466B
:1010D00053F821400E469046E4B12568EB689945E7
:1010E0000BD1D8F80000696850F80C2C51F80C3C72
:1010F0009A4202D103F0F2FC78B1286870B1C3685B
:101100007A682C46B3FBF2F102FB1132B24201D1F4
:101110000546E3E70020BDE8F8832046BDE8F883F4
:10112000F8B506681D4656F8213004469A4219D192
:101130002F6857B1D7F80CE04368BEFBF3F003FB10
:1011400010E38B421AD046F82320234653F8080BAD
:1011500050F821609E424FF0000308BFA76040F89E
:1011600021300BE02B684BB1DF684368B7FBF3F02D
:1011700003FB10738B4218BF46F8232028462B68C8
:10118000136050F8046B02F0FDFC284602F0F8FAF8
:10119000E3683046013BE360F8BD00002DE9F3470A
:1011A000044600F1080608460F469046FFF7EEFE9B
:1011B000E2680346B0FBF2F1304602FB11313A46D9
:1011C000FFF781FF08B1056800E00546394668462B
:1011D00002F014FD98F8003010208DF80430D4F897
:1011E000008002F0CFFA002202604260009A41467D
:1011F00082603E4A00929DF80420027302F060FC77
:10120000684602F0BFFCEDB1D5F80880404602F018
:101210005EFC08F1080002F0B5FC404602F0B0FAAE
:10122000E268E968B1FBF2F302FB1311A36853F81B
:1012300021201368AB4201D01A46FAE730462B460C
:10124000FFF76EFF3846FFF7A1FEE3688046B0FB6C
:10125000F3F903FB19093A46304649464346FFF77E
:1012600032FF58B3006848B32368083003606269EE
:10127000636A9A4236D9676808373846FFF786FEB0
:10128000E5680346B0FBF5F105FB11053A4630462B
:101290002946FFF718FF024620B130462946136859
:1012A000FFF73EFF6468204602F011FC04F10800DD
:1012B00002F068FC204602F063FA13E0102002F00E
:1012C00061FA05464FF0000A394640F804AB02F0D7
:1012D00095FCC5F808A03046494642462B46FFF724
:1012E00073FEC1E702B0BDE8F08700BFCC0000206C
:1012F0002DE9F7430C46064601F12C0501F16C007F
:10130000294601F067FB94F8273006F10408022B08
:1013100004F108074FF000034CD1032845D8DFE85B
:1013200000F00205303A0024214640E004F11109A2
:10133000294614220025484603F041FD49466A46E5
:1013400084F8255001A802F08BFC012384F8263094
:1013500001A8FFF71BFE226D0346B0FBF2F104F17A
:101360004C0002FB113101AAFFF7ADFE2B4678B30A
:1013700002686AB3236802212174DB69204698471A
:1013800033E0637423680125257484F82650DB69F3
:101390002046294608E0204663742368042101257D
:1013A000DB69217484F826509847002401213170AC
:1013B000747001E03370737044463D460FCD0FC426
:1013C0000FCD0FC430462B68236003B0BDE8F08317
:1013D0002374E36801250133E36004F1440001A9AB
:1013E0006A468DF80050FFF7D9FE01A82C4602F09E
:1013F000C9FBDBE710B5044600F0CCF994F8CC301B
:101400002BB104F18800BDE8104000F08CBB10BD8A
:1014100010B5044600F080F804F18800BDE81040E3
:1014200000F0F4BA10B5044600F02BF904F188007E
:10143000BDE8104000F05ABA10B5044600F05FF85D
:1014400004F18800BDE8104000F06DBB10B5044603
:1014500000F05BF804F18800BDE8104000F063BBC9
:1014600070B504461A4BD0F8A450036065B12B69DF
:101470002E6823B105F1080001460322984728464B
:1014800002F07EF93546F1E7D4F8A020D4F89C00AC
:101490002946920003F058FBD4F89C00C4F8A850E9
:1014A000C4F8A45028B104F1B403984201D002F06A
:1014B00067F9D4F88C0008B102F062F904F16C000D
:1014C00001F086F9204600F0E1F8204670BD00BF2B
:1014D000A85E000810B50446FFF7C2FF204602F0E0
:1014E0004FF9204610BD704770477047704710B5E0
:1014F00004460021282203F027FB204610BD0023CC
:1015000080F82730437403747047012380F8273034
:101510000023437403747047017470470068024AE3
:1015200050F80C1C02F044B907690FC710B5044607
:1015300002F0CDFA04F1080002F024FB2046BDE8D9
:10154000104002F01DB9B0F1804F38B501D302F060
:1015500025FC8400204602F015F9054600212246AC
:1015600003F0F2FA284638BD38B5164B0025036063
:1015700000F14403436483644FF07E5341600446AA
:1015800045658565C36505660A215C3002F07EFB12
:101590000128206503D1204640F8645F01E0FFF791
:1015A000D2FFC823A3660023A360E360637423749F
:1015B000A36284F827300123E06484F826302046B3
:1015C00038BD00BF105F00080B6883604B68C360C4
:1015D000002303740B6A8362CB7F80F827300123DA
:1015E00080F82630704770B505460468AC4209D0D3
:1015F000204650F8086B02F0C5FA204602F0C0F809
:101600003446F3E770BD70B5054684684CB120469A
:1016100050F8046B02F0B6FA204602F0B1F83446F6
:10162000F4E795E805002146920003F08DFAEC609E
:10163000AC6070BD38B504460023C360836043745A
:101640000374012380F8263004F144054C30FFF781
:10165000DAFF2846FFF7C7FF6564A56438BD38B5D3
:1016600090F8273004460D4623B9002908DDFFF71E
:10167000E1FF01E0002900DBA562022384F82730A6
:1016800038BD002280F82720FFF7D4BF10B50446EC
:10169000094B40F84C3BFFF7B6FFE06C28B104F172
:1016A0006403984201D002F06BF804F14400FFF7A4
:1016B0009AFF204610BD00BF105F000810B5044619
:1016C000FFF7E4FF204602F05BF8204610BD0068FB
:1016D000096808B550F80C2C51F80C3C9A4205D119
:1016E00003F0FCF9B0FA80F0400908BD002008BD05
:1016F00038B5054608460C46FFF710FF6A680346F2
:10170000B0FBF2F1284602FB11312246FFF7DBFC69
:1017100008B1006800B9002038BD10B50B46CC6890
:101720004168B4FBF1F201FB1241026852F821203A
:1017300014689C4201D02246FAE7FFF7F1FC10BD85
:10174000F7B504466A4601A804F14C0502F088FA90
:1017500001A92846FFF7CCFF014610B12846FFF744
:10176000DCFF264656F8445FB5420BD0284601A957
:1017700050F8087BFFF7ABFF10B12846FFF7D6FE05
:101780003D46F1E7E36801A8013BE36002F0FAF9A6
:1017900003B0F0BDF7B590F827600446022E31D1B2
:1017A00000F11107002580F826501522384603F075
:1017B00006FB39466A4601A802F052FA01A8FFF773
:1017C000ADFE226D0346B0FBF2F104F14C0002FBCA
:1017D000113101AAFFF777FC30B1036823B12674F9
:1017E00001A802F0CFF90DE0A36825740133A360CE
:1017F00004F14400012301A96A468DF80030FFF787
:10180000CDFCEDE703B0F0BD38B50446032A13D88C
:10181000DFE802F00204070F084B00E00B682360CA
:101820000AE004200D6801F0ADFF2B680360206022
:1018300002E0006801F0A4FF002038BD605F0008EE
:1018400038B50446032A13D8DFE802F00204070F74
:10185000084B00E00B6823600AE004200D6801F0EB
:1018600091FF2B680360206002E0006801F088FFB0
:10187000002038BD585F0008836810B5044613B1D6
:10188000014603229847204610BD13B50C4601A817
:10189000FEF7DCFE6268207801239340ADF8043047
:1018A00000F5801003238DF806304230A3688002D3
:1018B00001A98DF80730FEF77BFE02B010BD087855
:1018C0004B6800F58010012142309940800289B2B6
:1018D000FEF7C4BE08784B6800F580100121423045
:1018E0009940800289B2FEF7BBBE000010B50446E5
:1018F000016C0C31FFF7EEFF216C20461831FFF729
:10190000E9FF0023044A84F844302046BDE8104033
:10191000137001F0D9BB00BFA40000207FB50446BE
:101920000E4601F00DFC384B00252664A56384F8B3
:101930003C5084F844501C603378042606FA03F0C7
:101940000121FEF707FF236C01211B7B06FA03F040
:10195000FEF700FF236C01211B7E06FA03F0FEF761
:10196000F9FE2046216CFFF790FF216C20460C31D8
:10197000FFF78BFF216C20461831FFF786FF2046CA
:10198000FFF7B4FF01200146FEF7F0FE0DEB060065
:10199000FFF744F848F69F434FF08040ADF804301D
:1019A000ADF80A50ADF80650ADF808508DF80C505F
:1019B000FEF714FF0DEB06014FF08040FEF7E4FF49
:1019C0004FF080400121FFF755F829464FF0804045
:1019D000FFF742F801210A464FF08040FFF733F845
:1019E0001C238DF800304FF4E06001238DF80330A4
:1019F0008DF801508DF80250FEF7BAFC6846FEF7EC
:101A0000C1FC204604B070BDA00000207FB5036C6F
:101A10000446002604209D6A029601F0B3FE134B93
:101A200004600393124B29466A46009020460293B5
:101A300001F07CFA6846FFF71FFF236C04205D6A03
:101A40009B6A02961D4401F09DFE0A4B04600393BD
:101A5000094B009029466A462046029301F066FA37
:101A60006846FFF709FF04B070BD00BF911A000877
:101A700009180008111B000841180008016C034BED
:101A800001220C311A70FFF71ABF00BFA40000201A
:101A900003681868FFF7F2BF016C034B00220C319A
:101AA0001A70FFF717BF00BFA4000020012110B576
:101AB0004FF08040FEF7E2FF0128014620D14FF0B1
:101AC0008040FEF7E6FF0F4B1C680F4B20461B784B
:101AD0006BB9FFF7D3FF226C0C4B516A1B684FF0B8
:101AE00080405943BDE8104089B2FEF7C1BFFFF7FF
:101AF000D3FFBDE810404FF080400021FEF797BFB4
:101B000010BD00BFA0000020A4000020A8000020FD
:101B100003681868FFF7C0BF016C012280F84420F9
:101B20001831FFF7CCBE016C002280F84420183138
:101B3000FFF7D0BE03684FF4FA62B3FBF2F3826B97
:101B400010B5934204460DD9836390F83C30016C84
:101B50001BB1FFF7BFFE002302E0FFF7B0FE012339
:101B600084F83C3010BD0000034B044A1B68B3FBF3
:101B7000F2F3034A136070472C0000200051250245
:101B8000A800002010B50446024B036000F01EFAC6
:101B9000204610BDF05F000810B50446FFF7F2FFC5
:101BA000204601F0EDFD204610BD000010B50446B2
:101BB00000F014FA2346044A204643F8042BC4F8E4
:101BC00008340023237610BDF05F000810B50446EA
:101BD000024B036000F0FAF9204610BD20600008B7
:101BE00010B50446FFF7F2FF204601F0C9FD20467C
:101BF00010BD000070B50E4605680846174914462A
:101C000003F0B2F830B920462D6802F03FFFC5F866
:101C1000080470BD3046124903F0A6F830B92046DA
:101C20002D6802F033FFC5F80C0470BD30460D4935
:101C300003F09AF830B920462D6802F027FFC5F866
:101C4000280470BD3046084903F08EF828B92046B4
:101C50002D6802F017FF85F8270470BD2860000882
:101C6000316000083C6000084760000838B5044651
:101C7000032A13D8DFE802F00204070F084B00E044
:101C80000B6823600AE004200D6801F07BFD2B68DF
:101C90000360206002E0006801F072FD002038BDA2
:101CA0005060000830B5044685B000F097F90E4B3F
:101CB000042023600023D4F80454029301F062FD51
:101CC0000A4B046003930A4B00902946201D6A4684
:101CD000029300F095FF029B1BB168466946032200
:101CE0009847204605B030BD20600008F51B00086D
:101CF0006D1C000810B50446024B036000F066F945
:101D0000204610BDB060000810B50446FFF7F2FF92
:101D1000204601F035FD204610BD000010B50446F8
:101D200000210A4600F05AF9014B2046236010BDFD
:101D3000B060000810B50446024B036000F046F99D
:101D4000204610BD0061000810B50446FFF7F2FF01
:101D5000204601F015FD204610BD000010B50446D8
:101D6000024B0360FFF7E6FF204610BD106100083C
:101D700010B50446FFF7F2FF204601F001FD2046B2
:101D800010BD000038B505462C4600210A4600F07B
:101D900037F9074B074944F8043B204602F086FF19
:101DA000204602F0EBFFC5F80404284638BD00BF0A
:101DB000106100081861000810B50446024B03606A
:101DC000FFF7B8FF204610BD5061000810B504466B
:101DD000FFF7F2FF204601F0D3FC204610BD0000C3
:101DE00038B505462C4600210A4600F009F9074B94
:101DF000074944F8043B204602F058FF204602F011
:101E0000BDFFC5F80404284638BD00BF5061000876
:101E10005861000810B50446024B0360FFF78AFFC3
:101E2000204610BD9061000810B50446FFF7F2FF90
:101E3000204601F0A5FC204610BD000070B5064606
:101E40000C463546002186B00A4600F0D9F80E4B04
:101E50000E4945F8043B237A2846009304F1090310
:101E60000193A37F0293E37F0393236A049394E88F
:101E70000C0002F01BFF284602F080FFC6F80404A5
:101E8000304606B070BD00BF906100089861000840
:101E900010B50446024B0360FFF74CFF204610BD0F
:101EA0003862000810B50446FFF7F2FF204601F043
:101EB00067FC204610BD000038B505462C460021C1
:101EC0000A4600F09DF8084B084944F8043B0222FA
:101ED0000123204602F0EAFE204602F04FFFC5F83B
:101EE0000404284638BD00BF38620008406200087C
:101EF00010B50446024B036000F068F8204610BDA0
:101F00009862000810B50446FFF7F2FF204601F082
:101F100037FC204610BD000038B504680846064965
:101F2000154602F021FF28B92846246802F0AEFDCC
:101F3000C4F8080438BD00BF3C60000838B504464A
:101F4000032A13D8DFE802F00204070F084B00E071
:101F50000B6823600AE004200D6801F013FC2B6875
:101F60000360206002E0006801F00AFC002038BD38
:101F7000C462000830B5044685B000F02FF8104B5D
:101F8000042023604FF0FF33C4F808340023D4F852
:101F90000454029301F0F6FB0A4B046003930A4BCE
:101FA00000902946201D6A46029300F029FE029BFC
:101FB0001BB16846694603229847204605B030BDEC
:101FC00098620008191F00083D1F0008704710B5EF
:101FD000044601F0D5FB204610BD000038B5074B84
:101FE00004461546036011B9C4F8041404E0043033
:101FF00002F084FDC4F80454204638BDE0620008B5
:1020000010B50446FFF7EAFF014B2046236010BDE0
:102010000061000810B50446034B0360D0F8140CAF
:1020200001F0AEFB204610BD6064000810B5044608
:10203000FFF7F0FF204601F0A3FB204610BD000093
:1020400010B50446024B0360FFF7C0FF204610BDE9
:10205000E063000810B50446FFF7F2FF204601F0E8
:102060008FFB204610BD000010B50446024B0360F4
:10207000FFF7ACFF204610BD5064000810B50446C1
:10208000FFF7F2FF204601F07BFB204610BD000069
:1020900010B50446024B0360FFF798FF204610BDC1
:1020A0004064000810B50446FFF7F2FF204601F037
:1020B00067FB204610BD000010B50446024B0360CC
:1020C000FFF784FF204610BD3064000810B50446B9
:1020D000FFF7F2FF204601F053FB204610BD000041
:1020E00010B50446024B0360FFF770FF204610BD99
:1020F0002064000810B50446FFF7F2FF204601F007
:102100003FFB204610BD000010B50446024B0360A3
:10211000FFF75CFF204610BD1064000810B50446B0
:10212000FFF7F2FF204601F02BFB204610BD000018
:1021300010B50446024B0360FFF748FF204610BD70
:102140000064000810B50446FFF7F2FF204601F0D6
:1021500017FB204610BD000010B50446024B03607B
:10216000FFF734FF204610BDF063000810B50446A9
:10217000FFF7F2FF204601F003FB204610BD0000F0
:1021800010B5214840F22441FEF71FFD012839D146
:102190001D48FEF712FD1D480021FEF7D8F91C4B23
:1021A0001C6894F8093C13B104F2094301E004F6F9
:1021B00009030022C4F80C3C83F8FF2394F8093C7F
:1021C000124883F0010384F8093C012384F80A3C97
:1021D000FEF7D2F9C0F58060C4F8100C4FF48061AE
:1021E0000A48FEF7C7F994F8093C13B104F2094410
:1021F00001E004F6090405480121C460BDE810406F
:10220000FEF7A5B910BD00BF0038014058000240DC
:10221000AC0000200D4B10B54FF400501C68FEF7C9
:10222000AFF9012805D04FF40040FEF7A9F90128C5
:1022300005D1002184F808140548FEF788F9BDE8A7
:1022400010404FF48050FEF7A9B900BFAC00002049
:10225000440002402DE9F04F0646714B0024036014
:10226000704B012595B080F80844186080F8095C2F
:10227000416080F80A4CC0F80C4CC0F8104CC0F813
:10228000144C29460420FEF765FA29464FF4804095
:10229000FEF760FA29462846FEF750FA624F03A877
:1022A000FEF7D4F94FF40073ADF80C30384618231C
:1022B00003A94FF4806A8DF80F30FEF779F90423F3
:1022C00003A938468DF80F30ADF80CA0FEF770F971
:1022D00005A8FEF739FC736807F540571B6B3846B5
:1022E000059305A90C23ADF81E30ADF81840ADF8E4
:1022F0001A40ADF81C40ADF82040FEF7CFFB384641
:102300004021FEF75EFC2A46384640F22441FEF7A3
:1023100032FC29463846FEF722FC252304A8DFF8C4
:1023200014818DF810308DF812508DF811408DF811
:102330001350FEF727F809A8FEF7FCF83B4B06F10F
:1023400008024FF080090A924FF4005B10224046C9
:10235000099301930B920D940F941094119413947C
:10236000CDF830A0CDF83890CDF848B0FEF74CF855
:10237000404609A9FEF7C0F840462A460221FEF76A
:10238000F1F8404608212A46FEF7ECF80E2204A890
:102390008DF810208DF812508DF81350FDF7F2FFD4
:1023A0002A4638464946FEF7FFFB21464046FEF7DF
:1023B000CEF8019B0B940D940F94109411941394E8
:1023C0001B4C0993204606F209430A93CDF830A02E
:1023D000CDF83890CDF848B0FEF716F8204609A998
:1023E000FEF78AF82A4638464021FEF7DDFB2946EB
:1023F0002046FEF7ACF82C2001F0C4F9054609ACE4
:1024000007460FCC0FC50FCC0FC594E8070085E831
:1024100007003046C6F8147C15B0BDE8F08F00BF49
:1024200060640008AC00002000080140043801404E
:102430005800024044000240B2F5806FA8BF4FF43C
:102440008062F8B517460A4D012600F1080480F8AD
:102450000864204602F052FB2846B9B2FEF78AF81B
:10246000EC6028463146BDE8F840FEF770B800BF82
:10247000440002400B4610B590F80824002AFBD116
:1024800040F2FE34D3F80424191DA2424FF00A048E
:10249000D5BF8C5483F8034401324FF48062BDE809
:1024A0001040FFF7C9BF826810B50AB901F07FFC80
:1024B000C368BDE8104018472DE9F0410D461646A7
:1024C000D0F800800C2208465F4902F05FFC60B93A
:1024D0004FF4816001F056F905F10C01A6F10C02F0
:1024E0000446FFF77BFD594BA2E0284658490622D7
:1024F00002F04CFC48B940F20C4001F043F9A91D30
:10250000B21F0446FFF736FD93E0284651490622E4
:1025100002F03CFC074650B94FF4816001F032F9FB
:1025200039463A460446FFF759FD4B4B80E02846B2
:102530004A49052202F02AFC074650B94FF481604F
:1025400001F020F939463A460446FFF747FD444B6F
:102550006EE028464349052202F018FC48B940F2D3
:102560002C4001F00FF9691D721F0446FFF79AFB1A
:102570005FE028463C49072202F008FC50B94FF4BE
:10258000816001F0FFF8E91DF21F0446FFF726FD08
:10259000364B4DE028463649092202F0F7FB58B980
:1025A00040F20C4001F0EEF805F10901A6F1090234
:1025B0000446FFF7FBFA3CE028462E49082202F0C9
:1025C000E5FB074650B94FF4816001F0DBF839466E
:1025D0003A460446FFF702FD274B29E028462749E3
:1025E000062202F0D3FB074650B94FF4816001F098
:1025F000C9F839463A460446FFF7F0FC204B17E08D
:10260000284620490A2202F0C1FB38B94FF4816004
:1026100001F0B8F80446FFF781FB0AE04FF481604F
:1026200001F0B0F8294632460446FFF7D7FC164BB6
:10263000236008F104002146FFF735FF2368204698
:10264000BDE8F0415B681847686400083064000822
:10265000756400087C640008F06300088364000867
:1026600010640008896400088F6400080064000892
:1026700097640008A164000840640008AA64000888
:1026800050640008B16400082064000838B50023D5
:1026900083608B6804460D462BB102229847EB6895
:1026A000E360AB68A360204638BD000070B5054606
:1026B000032A1ED8DFE802F0020407150E4B00E0E3
:1026C0000B682B6015E014200C6801F05BF82146C4
:1026D000064651F8043B40F8043BFFF7D7FF2E6055
:1026E00007E004682CB1201DFFF7C6F8204601F072
:1026F00047F8002070BD00BF006500082DE9F041DB
:1027000090F80A3C8CB00D4603F0FF069BB94FF4DD
:10271000816001F037F8044631463246FFF75EFC2F
:10272000284B284623602146FFF7BDFE236820463C
:102730005B68984742E040F2FF33002580F80A5C6E
:10274000D0F8107CD0F80C2CBB42A8BF3B4608AC9C
:10275000C0F8105CD554D0F80C8C07902046FFF7D9
:1027600095FF1420059501F00DF80346079AC56002
:10277000026001AE94E8030086E803001A1D92E8A7
:10278000030084E8030096E8030082E803000A9A45
:102790000A95DA6019690B9A03930B911A610A4B37
:1027A00039460693094B03AA4046059300F09BFA6D
:1027B00003A8FFF761F82046FFF75EF80CB0BDE80C
:1027C000F08100BFE0630008B9240008AD260008CE
:1027D000064B10B504460360806808B100F0E3FFC3
:1027E000E06808B100F0DFFF204610BD3865000842
:1027F00010B50446FFF7ECFF204600F0C1FF20466D
:1028000010BD000038B51C4840F22441FEF7DDF948
:10281000012805462FD11848FEF7CFF917480021A7
:10282000FDF795FE164B15481C68217CE268A368ED
:10283000002908BF13460022636183F8FF21237C2F
:1028400083F0010323746574FDF796FEC0F50070F4
:10285000A0614FF400710948FDF78CFE217CA3684C
:10286000E2680648002908BF13462946C360BDE850
:102870003840FDF76CBE38BD004400406C0002409B
:10288000B00000202DE9F0414D4B002403604D4B7A
:10289000012692B018600546067441604474446194
:1028A00084614FF4007000F080FFA8604FF4007066
:1028B00000F07BFF3146E8600420FDF74BFF314616
:1028C0004FF40030FDF752FF3F4F31463046FDF7E1
:1028D00035FF4FF0040801A8FDF7B8FE182338466D
:1028E0000DEB08018DF80730ADF80480FDF760FEB0
:1028F00008230DEB08013846ADF804308DF8078049
:10290000FDF756FE03A8FEF71FF96B68A7F54447CD
:10291000DB6A384603930C230DEB0301ADF8163048
:10292000ADF81040ADF81240ADF81440ADF81840C5
:10293000FEF7B4F838464021FEF743F932463846F0
:1029400040F22441FEF717F931463846FEF707F901
:1029500026238DF8083002A802238DF80A308DF85E
:1029600009408DF80B60FDF70DFD07A8FDF7E2FDAE
:10297000164B09940793AB680B9408930D940E942F
:102980000F9411944FF40073114C0A9380230C930D
:1029900020464FF400531093FDF736FD204607A95B
:1029A000FDF7AAFD384632464021FEF7FDF82046E5
:1029B0003146FDF7CCFD284612B0BDE8F08100BFDE
:1029C00038650008B00000200008014004440040C1
:1029D0006C00024038B50D46417C002201F0FF0337
:1029E000A9B1427481698261406900F0DDF8044652
:1029F00008B9022038BD142100F0ECF80028F8D006
:102A000028462146142202F0DAF9012038BD184682
:102A100038BD000070B50C46066808464FF480715A
:102A2000154602F0DEF900284CD02046264902F077
:102A30009BF928B92846346802F024F8206170BD5B
:102A40002046224902F090F928B92846346802F05D
:102A500019F8E06170BD20461D4902F085F928B9DA
:102A60002846346802F012F8606270BD20461949A9
:102A700002F07AF928B92846346802F007F8A06213
:102A800070BD2046144902F06FF928B92846346811
:102A900001F0FCFF206370BD2046104902F064F98C
:102AA00028B92846346801F0F1FFE06270BD204685
:102AB0000B4902F059F928B92846346801F0E2FFC1
:102AC00084F8340070BD00BF74650008816500089B
:102AD0008F6500089C650008AA650008B7650008B6
:102AE000C965000838B50446032A13D8DFE802F0A8
:102AF0000204070F084B00E00B6823600AE0042083
:102B00000D6800F03FFE2B680360206002E0006863
:102B100000F036FE002038BD6C650008034630B575
:102B2000104C03F10C0594E8070083E8070004F15A
:102B30000C0207CA183485E8070094E8070003F17F
:102B4000180585E8070040F2DC525A6240F6B832B8
:102B50009A624FF4E132DA621A63012283F8342078
:102B6000184630BD486500087FB50023064604209E
:102B70000D461446029300F005FE094B06600393D0
:102B8000084B0090214628466A46029300F038F828
:102B9000029B1BB1684669460322984704B070BD8A
:102BA000152A0008E52A000838B50D4608490446EC
:102BB00002F023F958B1031B1A1D1833AB424FF032
:102BC000000303DA22441375043038BD184638BDBB
:102BD000FF65000803461A1A8A4206DA13F8012B29
:102BE000303A092AF7D9002070470120704710B504
:102BF00084680CB901F0DBF8C368BDE810401847E1
:102C00002DE9F8430546481C0C46914600F0CDFDE1
:102C1000804622462946002602F0D1F82B4908F8C2
:102C20000460404602F002F907464FF4807000F05D
:102C3000BCFD0346054603F8016B00F580720026D3
:102C400003F8016B9342FAD14FF4807000F0ADFDB0
:102C50000346044603F8016B00F58072002603F872
:102C6000016B9342FAD167B919492A46234638467F
:102C700002F040F8484629462246FFF7B8FF0126F1
:102C800018E02346384612492A4602F033F8012854
:102C9000DCBF00232B704846D8BF2370294622464C
:102CA000FFF7A5FF0020094902F0C0F801360746EA
:102CB0000028E6D1284600F063FD204600F060FDC4
:102CC000404600F05DFD3046BDE8F883046600082C
:102CD0000666000810B584680CB901F068F8C3688E
:102CE000BDE810401847F8B50C460A2106461746BD
:102CF00002F02CF8054630B9384631462246FFF737
:102D0000E9FF0120F8BD0024AA1B314638466E1C9D
:102D1000FFF7E0FF30460A2102F018F801340546BB
:102D20000028F1D12046F8BD30B54C1E022594FB99
:102D3000F5F4914202DC40F8213030BD50F82450C7
:102D40009D42F8D940F82150651E2146022495FB8A
:102D5000F4F4EEE7B0F1804F38B501D301F01EF87E
:102D60008400204600F00EFD05460021224601F0B9
:102D7000EBFE284638BD0368F0B5064653F821003F
:102D8000A0B10468176863689F420FD0236863B1DD
:102D90005D6872682046B5FBF2F402FB14528A4269
:102DA00001D11C46EFE70020F0BD1846F0BD38B554
:102DB000002383608B6804460D462BB1022298479E
:102DC000EB68E360AB68A360204638BD10B50446ED
:102DD000006808B100F0D4FC204610BD2DE9FF4189
:102DE00004461F46012300930E46E368904602A85E
:102DF00004F11001626800F07FFF9DF80830002B9D
:102E00003BD0039E012E04D12546002345F8183FF0
:102E100003E03046FFF79EFF05460020A368A06050
:102E2000F3B15968D3F800E0B1FBF6F206FB1212D9
:102E300055F8221059B9A1681960214641F8083F98
:102E400045F82210196841B145F8203005E00968BD
:102E5000196055F822201360024610467346DFE7DA
:102E6000234653F8180B984201D000F089FCB8FBB8
:102E7000F6F384E8600006FB13862368B50053F878
:102E800026202AB112683A6053F826301F600FE0FE
:102E9000A2683A60A7603AB150686268B0FBF2F18C
:102EA00002FB110243F82270234653F8082B5351BA
:102EB0003846E3680133E36004B0BDE8F08143685D
:102EC0002DE9F041046807461C1BA41014BF2346DB
:102ED00001231C19884602D2B4F1804F22D36FF02F
:102EE0004044A00000F04EFC064697E82800D8F8C1
:102EF0000010ED1AEE424FEAA50218BF715122B13F
:102F0000304619462A4601F004FE38680435354437
:102F100008B100F035FC06EB84043E607D60BC60C7
:102F2000BDE8F081002CDCD12646DEE72DE9F04734
:102F3000436B88B0322B0446904656DC8246012310
:102F400080F830305AF8143B08AFCE18836947F840
:102F50001C6DB6FBF3F903FB1969504649463A4626
:102F6000FFF709FF002842D00568002D3FD0083543
:102F700004AE41463046FFF71AFF96E8030002AB65
:102F800083E8030095E8030086E8030093E8030064
:102F900085E80300AA68069B0692AB60079BEA6877
:102FA00030460792EB60FEF767FCA368E268934245
:102FB00005D0019A03B11A600433A36003E0201D19
:102FC0003946FFF77CFF6068A3680022191A891050
:102FD00053F8043C0139FFF7A7FE002384F8303092
:102FE000636B01980133636312E0002010E0182046
:102FF00000F0C8FB019900220260416002610346B3
:10300000494650463246FFF7E9FE00F10805AFE7B2
:1030100008B0BDE8F087F0B50D464FF0020E511E26
:1030200091FBFEFE2946714510DA4C1C640004F148
:10303000FF3C50F82C6050F82470B74288BF6446BB
:1030400050F8246040F821602146ECE7D6070C4692
:103050000BD4023A022692FBF6F2914201BF4900DC
:10306000013150F8212040F824202A46BDE8F040E4
:10307000FFF75ABE0023F7B5036043608360116811
:10308000044601601360436851684160536083687F
:1030900091688160936007684668F61B072E10DD13
:1030A000B610B51E6D104FF0000257F825303846A7
:1030B0008DF8002029463246FFF7ADFF0DB1013DE6
:1030C000F1E7204603B0F0BD70B504468CB0002592
:1030D00001A902AA08A8029503950495FFF7CAFF63
:1030E000636805A80593A3680693E3680793089BA4
:1030F00008956360099B0995A3600A9B0A95E360A4
:10310000FFF764FE08A8FFF761FE02A8FFF75EFE66
:10311000E5694DB1284650F8086BFEF7ADFB28462F
:1031200000F02EFB3546F4E7A2696069294692005B
:1031300001F00AFD2562E56165630CB070BD000019
:1031400030B5044685B00025694601AA40F8045B05
:10315000019502950395FFF78DFF01A8FFF736FE55
:103160004FF07E53E56125626362A56204F124009D
:103170000A2100F08BFD0128A06103D1204640F810
:103180002C5F01E0FFF7E6FD0D4B606184F83050E5
:10319000042065631C60FDF72BF90A4B1B68013B9B
:1031A000B3F1807F09D2084AF0215360074B83F8BE
:1031B00023100023936007231360204605B030BD21
:1031C000B4000020B800002010E000E000ED00E0B6
:1031D000F8B506681D4656F8213004469A4219D1C2
:1031E0002F6857B1D7F804E04368BEFBF3F003FB48
:1031F00010E38B421AD046F82320234653F8080BDD
:1032000050F821609E424FF0000308BFA76040F8CD
:1032100021300BE02B684BB15F684368B7FBF3F0DC
:1032200003FB10738B4218BF46F8232028462B68F7
:10323000136050F8086BFEF71FFB284600F0A0FA59
:10324000E3683046013BE360F8BD00002D4B70B5EC
:103250001C6888B023680133236094F8303003F091
:10326000FF01002B4CD16068A268904248D00568ED
:1032700023680395AB4243D3131A072B0BDD4FF0A2
:10328000000652F8043C42F8045D121A8DF8006002
:103290009210FFF7C0FEA36804F11406043BA3607C
:1032A000A3693046B5FBF3F103AA03FB1151FFF705
:1032B00062FD28B305681DB305F1080104A8FFF7F6
:1032C00076FDA2696968B1FBF2F302FB1311636931
:1032D00053F821201368AB4201D01A46FAE72B4677
:1032E0003046FFF775FF069B0BB900F060FD04A8A0
:1032F000079B9847636B04A8013B6363FEF7BCFA26
:1033000008B070BDB4000020044B4FF47A721B6803
:10331000B3FBF2F3024A1360704700BF2C00002099
:10332000B8000020BFF34F8F0549064BCA6802F46E
:10333000E0621343CB60BFF34F8F00BFFDE700BFD8
:1033400000ED00E00400FA0538B50446032A15D85C
:10335000DFE802F002040711094B00E00B6823606C
:103360000CE008200D6800F00DFA034695E8030014
:1033700083E80300F3E7006800F002FA002038BD9C
:1033800030660008F8B505460446184B002745F896
:10339000043B2846FFF7C2FB2946E76304F14000DF
:1033A000FEF758FFD02000F0EDF906462946FDF75C
:1033B000F5FDE663142000F0E5F906462946E26BC8
:1033C000FDF7CCFD0A4B3773336037610C20C4F82E
:1033D0005C6C00F0D7F906462946E26BFDF7BEFDAE
:1033E000044B20463360C4F8586CF8BD40660008B2
:1033F000F85D0008405E000808B50120FDF754F9AB
:103400006120FDF7D7F90028FAD045F25550FDF7B5
:1034100029F90420FDF72CF93220FDF72FF9FDF7EB
:1034200033F9BDE80840FDF737B910B50446C16B64
:10343000ADF5816D68460831FEF700FD04F14000EE
:103440006946FFF717F86846FEF7E4FC0DF5816D55
:1034500010BD10B50446D0F85C0C03689B68984713
:10346000D4F8580CBDE8104003689B68184700006A
:103470002DE9F0410746ADF5816D0E46084600295D
:1034800000F0A58000235449544A00F0B7FA0346DF
:1034900028B1F86B03F58161FEF796F895E03046A8
:1034A0004D494F4A00F0AAFA054650B1F86BD5F8DD
:1034B0000814036801249B6898473846FFF7B5FF56
:1034C0005BE030464449474A2B4600F097FA804675
:1034D00000285FD130464049434A434600F08EFA07
:1034E000044630B1F86BD4F8081403689B6A984717
:1034F00068E0304638493D4A234600F07FFA0546E9
:10350000002833D130463449394A2B4600F076FA48
:103510000446002856D130462F49364A234600F04B
:103520006DFA054630B1381D291DD5F80424FFF782
:103530001BFB22E02B46304627492F4A00F05EFA5B
:10354000034660BB304624492C4A00F057FA002855
:1035500031D1304620492A4A002300F04FFA002892
:1035600035D0284A284B1A60FFF7DCFEF86B036859
:10357000DB6A98473846FFF758FF6846FEF702FCBB
:1035800007F140006946FEF775FF6846FEF7E6FB67
:1035900020461CE0F86B03681B6B984712E06846F6
:1035A000FEF78AFC07F140006946FEF763FF6846B4
:1035B000FEF76EFC09E0F86B03685B6B98473846D2
:1035C000FFF747FF3846FFF730FF0024D5E70DF53A
:1035D000816DBDE8F08100BFE8620008F85F000877
:1035E000C45F000804630008706200083C630008C0
:1035F000206300087863000898630008B863000837
:103600007C600008EFBEADDE00FF002010B5002397
:103610008CB0044608208DF80730049300F0B2F80F
:103620000DF1070343601D4B046005931C4B029092
:1036300002A904F140000493FFF760F8049B1BB15A
:1036400002A8014603229847E16B02A80B681B6A97
:1036500098479DF8093013B101238DF807309DF884
:1036600007307BB194F8383003F2163354F8230056
:103670000368DB68984728B9E06B0DF11501036812
:103680005B6A98479DF8083013B12046FFF7CDFEDE
:10369000E06B03689B6998470CB010BD01370008C8
:1036A0004933000810B50446ADF5816D6846FEF754
:1036B00097FB04F140006946FEF7DCFE2046FFF769
:1036C0009BFE2046FFF7A2FFFCF7DEFFF9E70000B4
:1036D00038B505460C4631B10846074A074900236C
:1036E00000F08CF928B928462146BDE83840FFF79C
:1036F000BFBE002038BD00BFF0620008E8620008CD
:1037000010B504682068FFF7E3FF62681378002BA8
:1037100008BF0346137010BD0D4B10B5044603607F
:10372000C06B10B103685B689847D4F85C0C10B1AB
:1037300003685B689847D4F8580C10B103685B685D
:10374000984704F14000FEF765FC204610BD00BF1D
:103750004066000810B50446FFF7DEFF204600F083
:103760000FF8204610BD10B54FF4466000F00AF87F
:103770000446FFF707FE2046FFF794FF002010BD28
:1037800001F096B910B5002814BF04460124204664
:1037900001F086F930B900F08BF908B9FDF737FA76
:1037A0008047F4E710BDFFF7EBBFFFF7EBBF00006A
:1037B00037B505460C464A40081B032C2844154BD8
:1037C0000AD900685A4301900198043C584380EAA2
:1037D000106043435A40EFE7880801F003010229D3
:1037E00005EB800407D0032902D001290AD105E0A6
:1037F000A17882EA0142617882EA012215F820006C
:1038000042405A4382EA523203FB02F080EAD0304F
:1038100003B030BD95E9D15B7FB5102302930368F7
:10382000002415469E6900946B468DF8044003946D
:103830001268B0479DF8043003F00603062B11BF51
:103840002046009B01202B6004B070BD0098904280
:103850000CBF06200120704710B50446024B0360E0
:1038600000F0A8FA204610BD8066000810B5044696
:10387000FFF7F2FF2046FFF783FF204610BD38B563
:1038800015461C4600F09BFA20B10823E36006238E
:103890002560237138BD2DE9F04106460C461546DA
:1038A0001F4600F08CFA48B9032F07D8236820463A
:1038B00031462A46BDE8F0415B691847BDE8F08112
:1038C0002DE9F041069E1F46089B80469E42154604
:1038D000099C03D1079900F072FA48B9404639466D
:1038E00000F06DFA28B1012326602571A37100E074
:1038F00065710020BDE8F08110B50446024B0360FD
:10390000FFF7AAFF204610BDE066000810B5044688
:10391000FFF7F2FF2046FFF733FF204610BD2DE9E9
:10392000F041069E804696420F4615461C4603D13E
:10393000194600F044FA58B9D8F808003946036827
:1039400006961E6A2A462346B446BDE8F041604703
:103950000620BDE8F0812DE9F14F0E461946834659
:10396000174699460A9CDDF82CA0DDF830800D9DA5
:1039700000F025FA78B1002E2C602F7106DB34445C
:10398000A0450CBF06240124AC711EE002361CD1F8
:103990000123AB7119E0444504D15846514600F06B
:1039A0000EFA88B9DBF80800314603680A94CDF8AE
:1039B0002CA0CDF830800D95DC693A464B46A446E4
:1039C00001B0BDE8F04F60476F71002001B0BDE865
:1039D000F08F2DE9F04104460F4616461D46FFF7CD
:1039E0004EFF48B9A0683946036832469C692B46A9
:1039F000A446BDE8F0416047BDE8F081F0B50F4650
:103A0000044616461D46016889B051F8083CC218A4
:103A100051F8040C002305938DF818308DF81930F7
:103A20008DF81A301023079303688DE8840005AAE7
:103A300003920294D3F81CC0062229463346E0477D
:103A4000059A0AB9002031E09DF81A0000F006033B
:103A5000062B2AD09DF819109DF818300B4003F062
:103A60000603062B21D001F005010429EAD0A0B9F4
:103A7000002D05DB501984420CBF062001200AE00E
:103A8000AB1C07D0336800941C6A304629463B467D
:103A9000A04700E001208DF81A009DF81A3003F0CD
:103AA0000603062BCED1059800E0104609B0F0BD04
:103AB000024B1868BFF35F8F704700BFBC00002047
:103AC0004B68016043604B6818604860704703684A
:103AD000426813605A607047012A10B502D10A7813
:103AE000027010BDBDE8104001F008B808B5521AC8
:103AF000FFF7F2FF08BD0000044B98421FBF0023F0
:103B000001600918836018BF0B737047C000002064
:103B1000134B10B59842044602D9124800F044F9FC
:103B2000884203D94B00984238BF1C4604F11D035C
:103B3000B3F5805F04F10D000CD98C420AD9C3F3B0
:103B40000B0304F58054E41A054B9C4228BF1C4625
:103B500004F10D00FFF716FE00224460826010BDE4
:103B6000FCFFFF3FDD670008054A904206D08268EF
:103B7000511E002A816001DCFFF702BE704700BFC2
:103B8000C000002013B50446006801A90C38FFF7F7
:103B9000EBFF204602B010BD054B984218BF83686A
:103BA00000F10C001CBF013340F8043C704700BF1B
:103BB000C000002070B50B460446006861681044E0
:103BC0001A46FFF7A5FF2268064600F10C0522B150
:103BD000284604F10C01FFF77FFF30462168FFF70C
:103BE0008BFF284670BD08B58368002B02DBFFF70A
:103BF000D3FF08BD0022FFF7DDFF08BD13B5044663
:103C0000086801AA69460C38FFF7EDFF20602046DE
:103C100002B010BD88422DE9F04105460C4601D1A5
:103C20000D4E15E018B914B10C4800F0BAF8671B36
:103C300000213846FFF76CFF804600F10C06304645
:103C400029462246FFF752FF40463946FFF754FF08
:103C50003046BDE8F08100BFCC000020906800082D
:103C600070B5054616460C4621B1084601F086F8A7
:103C7000211801E04FF0FF31204632464FF000039B
:103C8000FFF7C8FF2860284670BD00000B29F8B573
:103C9000054605D8164B5C5C204600F0D3FB14E0CB
:103CA000144AFB23002B0CDD581052F8206002EB65
:103CB00080048E4203D21B1A221D013BF2E7034609
:103CC000F0E71468204600F0ADFB064628680F4672
:103CD00000F0CAFB02460B463046394600F018FC9D
:103CE00000F04AF900F0AEFE68602046F8BD00BF63
:103CF000F06C0008006900082DE9D34F0A9E824647
:103D00001E444B680C469E4293463CD3086800F024
:103D1000ABFBCDE90001304600F084FBDDE9002378
:103D200000F020FD80465846894600F07BFB0646A1
:103D30000F464046494632463B4600F06FFEB8B15A
:103D40004046494600F0A0F9134B002200F02EFA3D
:103D500000F078FE4FEA4B01814238BF0146204611
:103D6000FFF794FF01238AF80030CAF804000FE03F
:103D7000DDE900233046394600F0CAFB00F084F943
:103D800000F060FE606000238AF80030CAF804305A
:103D9000504602B0BDE8D08F0000F03F08B5FCF7F8
:103DA00036FF08B5FCF733FF08B5FCF730FF08B560
:103DB000FCF72DFF704700207047002070478142BC
:103DC00008B50ED0406803782A2B0CD049680B78D0
:103DD0002A2B08BF013100F0C7FFB0FA80F040097C
:103DE00008BD012008BD002008BD0000244B1A6852
:103DF000D0075CBF01221A60224B1A68D1075CBF52
:103E000001221A60204B1A68D2075CBF01221A6097
:103E10001E4B1A68D0075CBF01221A601C4B1A683F
:103E2000D1075CBF01221A601A4B1A68D2075CBF27
:103E300001221A60184B1A68D0075CBF01221A6071
:103E4000164B1A68D1075CBF01221A60144B1A681E
:103E5000D2075CBF01221A60124B1A68D0075CBF00
:103E600001221A60104B1A68D1075CBF01221A6048
:103E70000E4B1A68D2075CBF01221A60704700BF60
:103E8000FC000020F8000020F4000020F0000020DA
:103E9000EC000020E8000020E4000020E00000200A
:103EA000DC000020D8000020D4000020D00000203A
:103EB000244B1A68D0075CBF01221A60224B1A6893
:103EC000D1075CBF01221A60204B1A68D2075CBF81
:103ED00001221A601E4B1A68D0075CBF01221A60CB
:103EE0001C4B1A68D1075CBF01221A601A4B1A6872
:103EF000D2075CBF01221A60184B1A68D0075CBF5A
:103F000001221A60164B1A68D1075CBF01221A60A1
:103F1000144B1A68D2075CBF01221A60124B1A6850
:103F2000D0075CBF01221A60104B1A68D1075CBF32
:103F300001221A600E4B1A68D2075CBF01221A6078
:103F4000704700BF2C010020280100202401002020
:103F5000200100201C010020180100201401002075
:103F6000100100200C0100200801002004010020A5
:103F700000010020000000002DE9F047C1F30A58BD
:103F8000A8F2FF36132E0B4604460D46024689461C
:103F9000074621DC002E51DBDFF8E88048FA06F8FE
:103FA00008EA010E5EEA02021BD033A3D3E9002324
:103FB00000F0FCF80022002300F03AFD40B1002D93
:103FC00003DD4FF480133341994429EA08050027A3
:103FD00038462946BDE8F087332E06DDB6F5806FFA
:103FE0003FD020461946BDE8F087A8F213424FF0B3
:103FF000FF3A2AFA02FA1AEA000FF2D01EA3D3E916
:10400000002300F0D3F80022002300F011FD002867
:10401000DED0002D0CDD142E08D0C8F5866808F11E
:104020000308012505FA08F52F1901D309F1010943
:104030004D4627EA0A0738462946CBE70EA3D3E9BF
:10404000002300F0B3F80022002300F0F1FC002868
:10405000BED0002D0CDB54EA050707D0084D002721
:10406000B6E702460B4600F0A1F8BCE73D46AFE7D5
:1040700000274FF00045ABE79C7500883CE4377E95
:104080000000F03FFFFF0F002DE9F047C1F30A5891
:10409000A8F2FF36132E0B4604460D46024689460B
:1040A00007461DDC002E40DBDFF8F08048FA06F8FA
:1040B00008EA010E5EEA020217D035A3D3E9002315
:1040C00000F074F80022002300F0B2FC20B1002DB3
:1040D00040DB29EA0805002738462946BDE8F08775
:1040E000332E06DDB6F5806F2FD020461946BDE889
:1040F000F087A8F213424FF0FF3A2AFA02FA1AEABE
:10410000000FF2D022A3D3E9002300F04FF80022E1
:10411000002300F08DFC0028DED0002D1FDB4D4673
:1041200027EA0A0738462946D8E719A3D3E9002326
:1041300000F03CF80022002300F07AFC0028CBD0ED
:10414000002D1ADB00273D46C6E702460B4600F06D
:104150002DF8CCE74FF4801333419944B9E7142E7E
:1041600008D0C8F5866808F10308012303FA08F3AC
:104170001F19D4D309F10109D1E725F00042064BFC
:10418000224318BF1D460027A6E700BFAFF30080FB
:104190009C7500883CE4377E0000F0BFFFFF0F00F5
:1041A00081F0004102E000BF83F0004330B54FEAE8
:1041B00041044FEA430594EA050F08BF90EA020F55
:1041C0001FBF54EA000C55EA020C7FEA645C7FEAE8
:1041D000655C00F0E2804FEA5454D4EB5555B8BF0B
:1041E0006D420CDD2C4480EA020281EA030382EA7C
:1041F000000083EA010180EA020281EA0303362D0E
:1042000088BF30BD11F0004F4FEA01314FF4801CE0
:104210004CEA113102D0404261EB410113F0004FF2
:104220004FEA03334CEA133302D0524263EB4303A9
:1042300094EA050F00F0A780A4F10104D5F1200E47
:104240000DDB02FA0EFC22FA05F2801841F10001A2
:1042500003FA0EF2801843FA05F359410EE0A5F176
:1042600020050EF1200E012A03FA0EFC28BF4CF0A7
:10427000020C43FA05F3C01851EBE37101F000455D
:1042800007D54FF0000EDCF1000C7EEB00006EEB6A
:104290000101B1F5801F1BD3B1F5001F0CD34908F4
:1042A0005FEA30004FEA3C0C04F101044FEA44524B
:1042B00012F5800F80F09A80BCF1004F08BF5FEAD2
:1042C000500C50F1000041EB045141EA050130BDB2
:1042D0005FEA4C0C404141EB010111F4801FA4F155
:1042E0000104E9D191F0000F04BF01460020B1FAAA
:1042F00081F308BF2033A3F10B03B3F120020CDAE2
:104300000C3208DD02F1140CC2F10C0201FA0CF0BF
:1043100021FA02F10CE002F11402D8BFC2F1200C24
:1043200001FA02F120FA0CFCDCBF41EA0C019040DA
:10433000E41AA2BF01EB0451294330BD6FEA040423
:104340001F3C1CDA0C340EDC04F11404C4F120020E
:1043500020FA04F001FA02F340EA030021FA04F320
:1043600045EA030130BDC4F10C04C4F1200220FA77
:1043700002F001FA04F340EA0300294630BD21FAB5
:1043800004F0294630BD94F0000F83F4801306BF7B
:1043900081F480110134013D4EE77FEA645C18BF6F
:1043A0007FEA655C29D094EA050F08BF90EA020F06
:1043B00005D054EA000C04BF1946104630BD91EAFE
:1043C000030F1EBF0021002030BD5FEA545C05D101
:1043D0004000494128BF41F0004130BD14F5800440
:1043E0003CBF01F5801130BD01F0004545F0FE41B4
:1043F00041F470014FF0000030BD7FEA645C1ABFE9
:10440000194610467FEA655C1CBF0B46024650EA1F
:10441000013406BF52EA033591EA030F41F400214B
:1044200030BD00BF90F0000F04BF0021704730B5D1
:104430004FF4806404F132044FF000054FF00001A6
:1044400050E700BF90F0000F04BF0021704730B567
:104450004FF4806404F1320410F0004548BF40423C
:104460004FF000013EE700BF42004FEAE2014FEA91
:1044700031014FEA02701FBF12F07F4393F07F4F6C
:1044800081F06051704792F0000F14BF93F07F4F9E
:10449000704730B54FF4607401F0004521F00041E1
:1044A00020E700BF50EA010208BF704730B54FF067
:1044B00000050AE050EA010208BF704730B511F06C
:1044C000004502D5404261EB41014FF4806404F1A4
:1044D00032045FEA915C3FF4DCAE4FF003025FEA26
:1044E000DC0C18BF03325FEADC0C18BF033202EBAE
:1044F000DC02C2F1200300FA03FC20FA02F001FA08
:1045000003FE40EA0E0021FA02F11444C1E600BFA6
:1045100070B54FF0FF0C4CF4E06C1CEA11541DBF59
:104520001CEA135594EA0C0F95EA0C0F00F0DEF824
:104530002C4481EA030621EA4C5123EA4C5350EA09
:10454000013518BF52EA033541F4801143F480135A
:1045500038D0A0FB02CE4FF00005E1FB02E506F0EB
:104560000042E0FB03E54FF00006E1FB03569CF040
:10457000000F18BF4EF0010EA4F1FF04B6F5007F46
:1045800064F5407404D25FEA4E0E6D4146EB0606B8
:1045900042EAC62141EA55514FEAC52040EA5E5041
:1045A0004FEACE2EB4F1FD0C88BFBCF5E06F1ED8EB
:1045B000BEF1004F08BF5FEA500E50F1000041EB22
:1045C000045170BD06F0004646EA010140EA0200CF
:1045D00081EA0301B4EB5C04C2BFD4EB0C0541EAF1
:1045E000045170BD41F480114FF0000E013C00F306
:1045F000AB8014F1360FDEBF002001F0004170BD2A
:10460000C4F10004203C35DA0C341BDC04F1140442
:10461000C4F1200500FA05F320FA04F001FA05F2CE
:1046200040EA020001F0004221F0004110EBD3709B
:1046300021FA04F642EB06015EEA430E08BF20EAC7
:10464000D37070BDC4F10C04C4F1200500FA04F36A
:1046500020FA05F001FA04F240EA020001F00041FC
:1046600010EBD37041F100015EEA430E08BF20EA6F
:10467000D37070BDC4F1200500FA05F24EEA020EB7
:1046800020FA04F301FA05F243EA020321FA04F0E6
:1046900001F0004121FA04F220EA020000EBD3709D
:1046A0005EEA430E08BF20EAD37070BD94F0000F9D
:1046B0000FD101F00046400041EB010111F4801FD1
:1046C00008BF013CF7D041EA060195F0000F18BF82
:1046D000704703F00046520043EB030313F4801FBE
:1046E00008BF013DF7D043EA0603704794EA0C0F78
:1046F0000CEA135518BF95EA0C0F0CD050EA41068E
:1047000018BF52EA4306D1D181EA030101F000410A
:104710004FF0000070BD50EA410606BF1046194632
:1047200052EA430619D094EA0C0F02D150EA01363E
:1047300013D195EA0C0F05D152EA03361CBF10467F
:1047400019460AD181EA030101F0004141F0FE411E
:1047500041F470014FF0000070BD41F0FE4141F4A2
:10476000780170BD70B54FF0FF0C4CF4E06C1CEAA2
:1047700011541DBF1CEA135594EA0C0F95EA0C0F57
:1047800000F0A7F8A4EB050481EA030E52EA033512
:104790004FEA013100F088804FEA03334FF0805533
:1047A00045EA131343EA12634FEA022245EA111560
:1047B00045EA10654FEA00260EF000419D4208BF11
:1047C000964244F1FD0404F5407402D25B084FEABE
:1047D0003202B61A65EB03055B084FEA32024FF46A
:1047E00080104FF4002CB6EB020E75EB030E22BFC7
:1047F000B61A754640EA0C005B084FEA3202B6EB87
:10480000020E75EB030E22BFB61A754640EA5C0035
:104810005B084FEA3202B6EB020E75EB030E22BFC5
:10482000B61A754640EA9C005B084FEA3202B6EBC6
:10483000020E75EB030E22BFB61A754640EADC0085
:1048400055EA060E18D04FEA051545EA16754FEAE7
:1048500006164FEAC30343EA52734FEAC2025FEA05
:104860001C1CC0D111F4801F0BD141EA00014FF094
:1048700000004FF0004CB6E711F4801F04BF014365
:104880000020B4F1FD0C88BFBCF5E06F3FF6AFAE81
:10489000B5EB030C04BFB6EB020C5FEA500C50F111
:1048A000000041EB045170BD0EF0004E4EEA113194
:1048B00014EB5C04C2BFD4EB0C0541EA045170BD9B
:1048C00041F480114FF0000E013C90E645EA060EDF
:1048D0008DE60CEA135594EA0C0F08BF95EA0C0F0D
:1048E0003FF43BAF94EA0C0F0AD150EA01347FF455
:1048F00034AF95EA0C0F7FF425AF104619462CE72C
:1049000095EA0C0F06D152EA03353FF4FDAE10468E
:10491000194622E750EA410618BF52EA43067FF4DF
:10492000C5AE50EA41047FF40DAF52EA43057FF46F
:10493000EBAE12E74FF0FF3C06E000BF4FF0010C7A
:1049400002E000BF4FF0010C4DF804CD4FEA410CDE
:104950007FEA6C5C4FEA430C18BF7FEA6C5C1BD0AB
:1049600001B050EA410C0CBF52EA430C91EA030F2C
:1049700002BF90EA020F0020704710F1000F91EA89
:10498000030F58BF994208BF90422CBFD8176FEA57
:10499000E37040F0010070474FEA410C7FEA6C5C25
:1049A00002D150EA013C07D14FEA430C7FEA6C5C2C
:1049B000D6D152EA033CD3D05DF8040B704700BF58
:1049C0008446104662468C461946634600E000BFA6
:1049D00001B5FFF7B7FF002848BF10F1000F01BD78
:1049E0004DF808EDFFF7F4FF0CBF012000205DF843
:1049F00008FB00BF4DF808EDFFF7EAFF34BF0120C8
:104A000000205DF808FB00BF4DF808EDFFF7E0FF60
:104A100094BF012000205DF808FB00BF4DF808EDB1
:104A2000FFF7CEFF94BF012000205DF808FB00BF18
:104A30004DF808EDFFF7C4FF34BF012000205DF8FA
:104A400008FB00BF4A0011D212F5001211D20DD599
:104A50006FF47873B3EB62520ED44FEAC12343F084
:104A6000004343EA505323FA02F070474FF000002E
:104A7000704750EA013002D14FF0FF3070474FF0DD
:104A80000000704700210A2200F0B4BA00210A2277
:104A900000F0B0BA014B1868704700BF94000020C6
:104AA000024B0146186800F09BB800BF940000203C
:104AB000024B0146186800F04FB800BF9400002078
:104AC00010B5C9B202449042034605D01C780130AB
:104AD0008C42F8D1184610BD002010BD10B50A4414
:104AE000441E914208D014F8013F0878834201D057
:104AF000181A10BD0131F4E7002010BD10B5431E97
:104B00000A44914204D011F8014B03F8014FF8E731
:104B100010BD814210B501EB020301D3421E0BE030
:104B20009842FBD28118D21AD34204D013F8014D17
:104B300001F8014DF8E710BD994204D011F8014B7E
:104B400002F8014FF8E710BD03460244934202D039
:104B500003F8011BFAE7704730B500293CD051F843
:104B6000042C0B1F1D49002AB8BF9B180A680C466D
:104B700012B95A600B6030BD93420DD219685818B3
:104B8000904201BF5A5852181A60426823605A6016
:104B900030BD994203D80A4651680029F9D11468FA
:104BA00015199D420AD11B682344D018884213600E
:104BB00012D10868034413604B680CE002D90C233F
:104BC000036030BD1C681819884201BF0868496835
:104BD000001918605960536030BD00BF34010020D7
:104BE00070B5CC1C24F0030408340C2C38BF0C2402
:104BF000002C064603DA0C233360002070BD8C4283
:104C0000F9D3204A136810461946A1B10A68121B4D
:104C10000ED40B2A03D90A608B188C501FE08B42EC
:104C20000BBF5A684A6802605A6018BF0B4616E00C
:104C30000B464968E9E7144D2B681BB9304600F074
:104C400025F828603046214600F020F8421C034633
:104C5000D1D0C51C25F0030585420AD11C6003F1A3
:104C60000B001A1D20F00700821A0AD051429950F9
:104C700070BD3046E91A00F009F80130BBD02B4670
:104C8000ECE770BD340100203001002038B5064C3F
:104C90000023054608462360FBF7BEFF431C02D1F4
:104CA000236803B12B6038BD380100200EB400B575
:104CB0004FF402719CB0ADF814106FF000410491F4
:104CC00007914FF6FF711DABADF81610084953F868
:104CD000042B02900690086802A9019300F06EFA76
:104CE000029B00221A701CB05DF804EB03B0704701
:104CF000940000200EB430B59CB01FAC4FF401728C
:104D000054F8045BADF814200290069000F036F8D9
:104D10000B4B03900B9300230F9314934FF6FF73E9
:104D2000ADF81630074B079002A918682A462346AB
:104D3000019400F08FFB1CB0BDE8304003B0704719
:104D4000494D00089400002000207047C9B2034676
:104D500010F8012B1AB18A42F9D118467047002980
:104D60000CBF18460020704710F8012B11F8013BCA
:104D7000012A28BF9A42F7D0D01A7047034613F889
:104D8000012B002AFBD1181A0138704770B5A2B167
:104D9000451E01396B7811F8014F6E1CA34206D1F4
:104DA0006FF00104641B1444E04202D11C46181B3E
:104DB00070BD3546002BEDD1F8E7104670BD0346B7
:104DC00010B532B111F8014B013A03F8014B002C38
:104DD000F7D11A44934203D0002103F8011BF9E7ED
:104DE00010BD024610B501448A42134603D01C7818
:104DF0000132002CF8D1181A10BD30B5037823B950
:104E00000B78002B18BF002030BD03461A78013004
:104E10003AB100228C5C34B19D5CA542F5D10132DF
:104E2000F8E7104630BD184630BD0000174B2DE99D
:104E3000F0411D680646AC6D0F46FCB95020FFF7E7
:104E40002FFEA8658460AB6D046044601C61DC606B
:104E5000AB6D9C615C61AB6DDC629C62AB6D5C6355
:104E60001C63AB6DDC639C63AB6D5C641C64AB6DFD
:104E7000DC649C64AB6D1C77AB6D5C62304639467C
:104E8000AA6D0123BDE8F04100F002B894000020B3
:104E9000F0B548B9106838B9F0BD17F8016B5EB1CC
:104EA000B542FAD12BB1204604460F4614F8015BF7
:104EB000F3E714600370F0BD4DB915602846F0BDEE
:104EC00017F8016BAE4207D0002EF9D11C462346DD
:104ED0000F4613F8015BF3E715B10021217000E0E4
:104EE0002B461360F0BD00002DE9F0470F46404C03
:104EF000D4F800903D4615F801EB09EB0E046678F6
:104F000006F0080404F0FF060CB12F46F2E77446E1
:104F10002D2C03D1BD1C7C78012603E02B2C04BF73
:104F20007C78BD1C13B1102B0AD15AE0302C56D11D
:104F30002C7804F0DF04582C4CD16C781023023507
:104F4000002E14BF4FF000486FF00048B8FBF3FA92
:104F50000027BE4603FB1A8809EB040C9CF801C02D
:104F60001CF0040F01D0303C0BE01CF0030C1BD0F4
:104F7000BCF1010F0CBF4FF0370C4FF0570CCCEBCE
:104F800004049C4210DAB7F1FF3F0AD0D64506D898
:104F900001D1444503DC03FB0E4E012701E04FF035
:104FA000FF3715F8014BD7E77C1C73460AD1002E5A
:104FB0004FF0220114BF4FF000436FF00043016037
:104FC0002AB911E00EB1CEF100036AB107B1691E32
:104FD000116009E03024002BB2D10823B0E70A2386
:104FE000AEE7302CACD1A3E71846BDE8F08700BF90
:104FF0003000002030B505460C461346034A2946CA
:1050000010682246BDE83040FFF76EBF94000020D4
:105010002DE9F0470E463B4CD4F80090354615F884
:1050200001EB09EB0E04677807F0080404F0FF07B2
:105030000CB12E46F2E774462D2C03D1B51C7478C2
:10504000012703E02B2C04BF7478B51C13B1102B7F
:105050000AD151E0302C4DD12C7804F0DF04582CCB
:1050600043D16C78102302354FF0FF38B8FBF3F8CA
:1050700003FB08FA00266FEA0A0AB64609EB040C9D
:105080009CF801C01CF0040F01D0303C0BE01CF078
:10509000030C1BD0BCF1010F0CBF4FF0370C4FF0CD
:1050A000570CCCEB04049C4210DAB6F1FF3F0AD057
:1050B000C64506D801D1544503DC03FB0E4E01263C
:1050C00001E04FF0FF3615F8014BD7E7741C73462B
:1050D00003D122230360334602E00FB1CEF1000377
:1050E0006AB106B1691E116009E03024002BBBD102
:1050F0000823B9E70A23B7E7302CB5D1ACE7184647
:10510000BDE8F087300000202DE9F0478E68824628
:10511000B3420C469046994640D38A8912F4906F68
:105120003AD02568096902236F1A656905EB4505C0
:1051300095FBF3F57B1C4B449D4238BF1D46530540
:105140000FD52946FFF74CFD064698B121693A462E
:10515000FFF7D4FCA38923F4906343F08003A38179
:1051600013E02A4600F014FE064670B95046216945
:10517000FFF7F2FC0C23CAF80030A3894FF0FF3090
:1051800043F04003A381BDE8F08726613E442660DA
:105190004E466561ED1BA560B14500D24E463246D4
:1051A00020684146FFF7B5FCA36800209B1BA36065
:1051B00023681E442660BDE8F08700002DE9F04317
:1051C0009DB003938B8906461C060D4690460CD570
:1051D0000B6953B94021FFF703FD2860286110B91E
:1051E0000C233360CCE040236B6100230993202320
:1051F0008DF8293030238DF82A3043461C4613F8A9
:10520000012B1AB9B4EB08090FD002E0252AF5D119
:10521000F8E73046294642464B46FFF775FF013016
:1052200000F0A980099B4B4409932378002B00F0E0
:10523000A28000234FF0FF32049307930592069358
:105240008DF853301A9304F101084446DFF8489171
:10525000217848460522FFF733FC08F10108049B3A
:1052600030B1C9EB00000122824013430493ECE704
:10527000D80644BF20228DF85320190744BF2B22A3
:105280008DF8532022782A2A02D0079923460EE06F
:10529000039A0134111D12680391002ABBBF5242C8
:1052A00043F0020307920792B8BF04930AE01C463A
:1052B00022780133303A092A03D80A2000FB012161
:1052C000F5E7079123782E2B1AD163782A2B0AD180
:1052D000039B02341A1D1B680392002BB8BF4FF0CA
:1052E000FF3305930CE0611C00220C46237801314A
:1052F000303B092B03D80A2000FB0232F5E7059268
:10530000DFF89880217840460322FFF7D9FB38B1B7
:10531000049AC8EB000040238340134304930134F4
:1053200021781A48062204F101088DF82810FFF7A9
:10533000C7FB88B1164B33B9039B073323F0070330
:105340000833039313E003AB0093304604A92A46C5
:10535000104BAFF3008007E003AB0093304604A985
:105360002A460C4B00F03AFA421C074603D0099B30
:105370003B44099341E7AB895B0601D4099801E0FE
:105380004FF0FF301DB0BDE8F08300BF1E6E000877
:105390000000000009510008146E00081A6E000891
:1053A00038B54B1C144602D14FF0FF3038BD9389FD
:1053B000CDB223F020039381536B526883B1A36B6A
:1053C0009A4207DA23685A1E226003F8015C636878
:1053D00001331FE0214600F0A2FC0028F2D0E3E7F1
:1053E0002169236851B18B4208D913F8010CA842F6
:1053F00004D1013B01322360626038BDE36304F1F4
:10540000440363630323A3632346226403F8465FD4
:10541000236001236360284638BD10B50C46496BF4
:1054200069B104F14403994201D0FFF795FB236C65
:1054300000206063636013B1E36B236010BD2369D8
:105440004FF0FF30236000236360A38943F0200303
:10545000A38110BD2DE9F04707460C469046ADF5F7
:10546000247D01930023469347939C4B0DF10C0A36
:10547000A2939B4BCDF820A1A39398F80050002D48
:1054800000F0248197490B6889462B445B7803F030
:10549000080303F0FF02EBB16368002B10DD236803
:1054A000D9F800101A780A44527815070ED5479A91
:1054B00001330132479262682360013A6260EBE790
:1054C000A39B3846214698470028E8D008F10106FA
:1054D000B046D2E7252D08F101064FD145924392FF
:1054E00098F801302A2B03D11023439308F10206C8
:1054F00031783546A1F13003092B06F1010606D8B3
:10550000459B0A2202FB0313303B4593F0E7DFF88B
:10551000DC8103224046FFF7D3FA40B13546012330
:10552000C8EB000003FA00F2439B134343936E1C45
:105530002D78672D0FD8652D78D25B2D54D005D8E6
:10554000002D00F0C580252D18D071E0632D57D0B7
:10555000642D3FD06CE0702D32D007D86E2D55D021
:105560003AD8692D64D1002344933BE0752D31D0A6
:10557000782D29D0732D5BD102233FE06368002B87
:105580000DDD23681A78AA4240F0A08001336268DA
:105590002360479B013A01336260479398E7A39BDE
:1055A0003846214698470028EBD04698002800F05E
:1055B0008F80A38913F0400F18BF4FF0FF3089E0B0
:1055C000439B43F020034393439B43F40073439373
:1055D000102302E00A2300E008236E2D449301DD2E
:1055E00004230BE0032309E03146504600F066FB3C
:1055F0000646439B43F040034393012349931BE03A
:10560000439B43F0400343930023F7E7439AD006BC
:105610003FF55EAF12F0010F019A479B02F10401C2
:105620000191126814BF1380136051E70523E5E769
:10563000032349930A2344936368002B03DD439BB0
:10564000590611D518E0A39B3846214698470028F3
:10565000F5D0AAE7479A013247926268013A002AD8
:10566000626013DD013323602368D9F800101A78D3
:105670000A4452781207EDD4499B022B0DDC3846C0
:1056800043A9224601AB00F0C9F919E0A39B3846B3
:10569000214698470028E7D087E7042B06DC3846E8
:1056A00043A9224601AB00F017FA09E00E4B002B8C
:1056B0003FF40EAF384643A9224601ABAFF300805A
:1056C000012803D002287FF403AF6EE7469801E07B
:1056D0004FF0FF300DF5247DBDE8F087A1530008A1
:1056E0001B54000830000020000000001A6E000863
:1056F0002DE9F84391461F468A680B690646934296
:10570000B8BF1346C9F8003091F843200C46DDF8C5
:10571000208012B10133C9F800302368990642BFD6
:10572000D9F800300233C9F80030256815F00605B5
:105730001CD094F843302268003318BF012392062E
:105740001FD5E118302081F843005A1C94F8451009
:105750002244023382F8431013E03046394604F104
:1057600019020123C047013007D00135E368D9F899
:1057700000209B1A9D42F0DBDBE74FF0FF30BDE8D5
:10578000F8833046394604F14302C0470130F4D073
:105790002268D9F80050E36802F00602042A08BF24
:1057A0005D1B2269A3680CBF25EAE57500259342BD
:1057B000C4BF9B1AED184FF00009A9450ADA30461C
:1057C000394604F11A020123C0470130D5D009F14E
:1057D0000109F2E70020BDE8F88300002DE9FF4150
:1057E0000C461746227E98466E2A06460A9B01F111
:1057F000430100F0B08012D8632A23D00AD8002ACF
:1058000000F0BD80582A40F0CC8084F84520DFF8B5
:1058100004E257E0642A1ED0692A1CD0C1E0732A32
:1058200000F0B18009D86F2A2ED0702A40F0B980DC
:10583000226842F0200222603FE0752A24D0782AB4
:105840003BD0AEE01A6804F14205111D19601368DF
:1058500084F84230A9E020681A6810F0800F02D066
:10586000101D186008E010F0400F02F104001860ED
:1058700002D0B2F9003000E01368002B3EDA2D228E
:105880005B4284F8432039E020681A6810F0800FEA
:1058900002D0101D186007E010F0400F02F1040064
:1058A000186001D0138800E01368227EDFF864E1FD
:1058B0006F2A0CBF08220A221CE07822DFF858E188
:1058C00084F845202268186812F0800F00F1040562
:1058D0001D6003D1550601D5038800E00368D00799
:1058E00044BF42F0200222601BB9226822F020024D
:1058F00022601022002084F8430002E0DFF814E167
:105900000A226568002DA8BF2068A560A4BF20F00A
:105910000400206003B965B10D46B3FBF2F002FB51
:1059200010331EF8033005F8013D03460028F4D17A
:1059300000E00D46082A0BD12368DA0708D5236951
:1059400062689A42DEBF302305F8013C05F1FF355D
:10595000491B21612EE025681A6815F0800F6069E7
:1059600003D0151D1D60136808E015F0400F02F10B
:1059700004051D60136801D0188000E01860002342
:1059800023610D4616E01A68111D19601568002183
:1059900028466268FFF794F808B1401B60606368AE
:1059A00004E004F1420584F842200123236100232E
:1059B00084F84330CDF800803046214603AA3B46A8
:1059C000FFF796FE013002D14FF0FF301FE0304666
:1059D00039462A462369C0470130F5D023689B0722
:1059E00005D4E068039B9842B8BF18460FE0002535
:1059F000E368039A9B1A9D42F3DA3046394604F174
:105A000019020123C0470130DED00135F0E704B0B0
:105A1000BDE8F081256E0008366E00082DE9F041E2
:105A200015468A6880460C4632B98A69002A0CBF3E
:105A300001224FF0FF328A6022680026D1065FBF44
:105A40001A68111D19601768A069F8B92368013632
:105A5000DA065EBF2B681B783B702A686B6802F120
:105A600001022A60A26803F1FF3302F1FF326B608A
:105A700058BF0137A260EAB1002BE5DCD4F88031D1
:105A80004046294698470028DED013E0012807D178
:105A90002B6862691B78D35C002BD7D1C6B109E0B3
:105AA000022807D12B680B4A1B78126813445B78D5
:105AB0001B07CBD5236813F0100305D1E268013230
:105AC000E260A26902B13B70236900201E44266196
:105AD000BDE8F081300000202DE9F04F0C469A46D9
